:020000040800F2
:1000000000800020511F0008751E0008771E0008A0
:1000100000000000000000000000000000000000E0
:10002000000000000000000000000000791E000831
:1000300000000000000000007B1E00087D1E00087C
:10004000A11F0008A11F0008A11F0008A11F000890
:10005000A11F0008A11F0008A11F0008A11F000880
:10006000A11F0008A11F0008A11F0008A11F000870
:10007000A11F0008A11F0008A11F0008A11F000860
:10008000A11F0008A11F0008A11F0008A11F000850
:10009000A11F0008A11F0008A11F0008A11F000840
:1000A000A11F0008A11F0008A11F0008A11F000830
:0C00B000A11F0008A11F0008A11F0008EC
:1000BC0010B5064C2378002B07D1054B002B02D032
:1000CC00044800E000BF0123237010BD7000002025
:1000DC00000000004C280008044B10B5002B03D086
:1000EC000349044800E000BF10BDC04600000000FA
:1000FC00740000204C28000802B4714649084900DD
:10010C00095C49008E4402BC7047C04603B471467A
:10011C00490840004900095E49008E4403BC704701
:10012C00002243088B4274D303098B425FD3030A2A
:10013C008B4244D3030B8B4228D3030C8B420DD33D
:10014C00FF22090212BA030C8B4202D312120902CB
:10015C0065D0030B8B4219D300E0090AC30B8B4209
:10016C0001D3CB03C01A5241830B8B4201D38B03B7
:10017C00C01A5241430B8B4201D34B03C01A52415C
:10018C00030B8B4201D30B03C01A5241C30A8B429F
:10019C0001D3CB02C01A5241830A8B4201D38B028A
:1001AC00C01A5241430A8B4201D34B02C01A52412E
:1001BC00030A8B4201D30B02C01A5241CDD2C309A0
:1001CC008B4201D3CB01C01A524183098B4201D31C
:1001DC008B01C01A524143098B4201D34B01C01A07
:1001EC00524103098B4201D30B01C01A5241C3087F
:1001FC008B4201D3CB00C01A524183088B4201D3EE
:10020C008B00C01A524143088B4201D34B00C01AD9
:10021C005241411A00D20146524110467047FFE745
:10022C0001B5002000F006F802BDC0460029F7D049
:10023C0076E770477047C04670B50500FA200D4B45
:10024C0080001978FFF76CFF0B4B01001868FFF763
:10025C0067FF00F079F804000120002C09D1032D70
:10026C0007D802382200290000F03EF82000034B8A
:10027C001D6070BD0000002008000020040000205C
:10028C001023064A10B5116800200B431360FFF7CA
:10029C00D3FF01F0D1FD002010BDC046002002406C
:1002AC00034A044B11681B785B1813607047C046F7
:1002BC00A400002000000020014B18687047C046C5
:1002CC00A400002070B50400FFF7F6FF0500631CC6
:1002DC0002D0044B1B78E418FFF7EEFF401B84425E
:1002EC00FAD870BD0000002070B58901002812DB1F
:1002FC008308134A03249B009B18FF222040A04034
:10030C001400C025844011408140AD005E59A643C5
:10031C003143595170BD03240F23C0B20340204018
:10032C00A040FC342500214085408140083B054A13
:10033C009B089B009B18DA69AA431143D961E9E732
:10034C0000E100E000ED00E0094A431E0120934269
:10035C000DD8C021074A08485360036A09061B02DE
:10036C001B0A0B4303620020072390601360704745
:10037C00FFFFFF0010E000E000ED00E0F0B5564A92
:10038C000B688218541EA24189B0039300230432D7
:10039C000592039ADA4001D109B0F0BD01229A40CE
:1003AC0094466446039A2240029200D192E04A6835
:1003BC0001921022019E9643022E0DD107240F2785
:1003CC001C40A400A740DA0892008218156ABD43AD
:1003DC000F69A7403D431562032214005D00AC4039
:1003EC00E4430768013E27400497019F3A40AA4026
:1003FC00049F3A430260012E0ED8CA688668AA4050
:10040C00264032438260624646689643019AD20681
:10041C00D20F9A4032434260C26814408A68AA40A4
:10042C001443019AC460D20054D501262B4A1D00F6
:10043C0094693443946192699C0832400792079AFC
:10044C00274AA400A418A268944603221540AD00C4
:10045C000C32AA40674697439022D205944600225C
:10046C0060450DD01F4A94463200604508D01E4EA0
:10047C009218B04204D01D4E0132B04200D0059A01
:10048C00AA403A43A2601A4A029C1668029D019F38
:10049C00E4433543FF0301D435002540156056680D
:1004AC00029D019F3543BF0301D4350025405560A3
:1004BC009668029D019F3543FF0201D4350025400B
:1004CC009560D568029E019F2E43BF0201D4254042
:1004DC002E00D66001335CE700F0FFB7001002403D
:1004EC00000001400004004800080048000C0048CF
:1004FC0000040140002A01D0816170478162FCE751
:10050C0003689A69920701D500229A6201229969BF
:10051C00114202D199690A439A61704770B5049EE1
:10052C0089053343890D194380230468DB00700D62
:10053C001840044B65681204184385431143294342
:10054C00616070BDFF63FF03F8B504000E00170077
:10055C001D002268936933409B1B59424B41BB429F
:10056C0001D0002017E06B1CF4D0FFF7A5FE069B12
:10057C00C01A854201D3002DEBD12022636C0120DF
:10058C0013436364230041331A7022000023423268
:10059C00403413702370F8BDF8B5036804009869F3
:1005AC0010230E00170018402025002818D1F8BD84
:1005BC00721C16D0FFF780FEC01B864201D3002EA2
:1005CC000ED12022636C13436364230041331A70F1
:1005DC002200002342324034137001202370E6E7DE
:1005EC0023689A692A42E3D010222000DA61DD6187
:1005FC00FFF786FF2268064953680B4053600423BB
:10060C00626C13436364230041331D70E0E7C04602
:10061C0000E800FEF8B504000D0016000227236860
:10062C009B693B4201D00020F8BD3200290020001C
:10063C00FFF7B2FF002815D16B1CF0D0FFF73CFE82
:10064C00801B854201D3002DE9D12022636C13431A
:10065C006364230041331A70220000234232403479
:10066C00137023700120DFE7F8B504000D001600AD
:10067C00202723689B693B4201D00020F8BD320043
:10068C0029002000FFF788FF002813D1FFF714FE84
:10069C00801B854201D3002DEBD12022636C1343C8
:1006AC006364230041331A70220000234232403429
:1006BC00137023700120E1E7F8B504000D0017005A
:1006CC00042623689B69334211D13A00290020008B
:1006DC00FFF762FF00281AD1202123689A690A4289
:1006EC0017D09A69324204D0228D002A01D0002002
:1006FC00F8BD2021D9615A680E4802405A60220088
:10070C000023413263641170403453702370012014
:10071C00EEE7FFF7D1FDC01B854201D3002DD0D1F0
:10072C002022636C13436364230041331A704034FA
:10073C000023EBE700E800FE70B504000120002C5C
:10074C003FD0250041352B78DBB2002B05D12200A0
:10075C0040321370200001F047FA242301212B7042
:10076C002368E0681A68A6688A431A6061681A4AA6
:10077C000A401A619968194A11409960012821D1DF
:10078C008021090231439960586815490143596029
:10079C00D96800200A40DA60616922690A43A169BC
:1007AC0009020A43DA60216AE2690A431A600122EB
:1007BC0019680A431A60202360642B70206342344A
:1007CC00207070BD84210902314399600228DBD16D
:1007DC00802109015960D7E7FFFFFFF0FF7FFFFF82
:1007EC0000800002F0B5050087B0039104920593D8
:1007FC0041352B7804000220202B14D123004033E8
:10080C001A78012A0FD001261E70FFF755FD8021A2
:10081C00070000901923320009022000FFF794FE14
:10082C00002802D0012007B0F0BD21232B70250039
:10083C00113B42352B70049B606463626B469B8A50
:10084C0060636385628D304BFF2A21D9FF2222859C
:10085C00009380235B0403992000FFF75FFEFF26C3
:10086C00638D3A000C992000002B19D1FFF7FCFE88
:10087C000028D7D120212368244ED9615A683240F0
:10088C005A60230040344133197028702070CAE735
:10089C00628D92B2228500938023D2B29B04DAE758
:1008AC00FFF7B8FE0028BDD1636A226819780133BE
:1008BC0091626362638D228D013B9BB26385013A29
:1008CC00638D92B22285002BCAD0002AC8D1009722
:1008DC000C9B80212000FFF737FE0028A2D1638DEE
:1008EC00FF2B09D98023FF2226855B0400900399F6
:1008FC002000FFF713FEB3E78023628D9B0492B2B6
:10090C002285D2B20090F2E70020008000E800FEC1
:10091C00F0B5050087B003910492059341352B780F
:10092C0004000220202B14D1230040331A78012A12
:10093C000FD001261E70FFF7BFFC8021070000902E
:10094C001923320009022000FFF7FEFD002802D017
:10095C00012007B0F0BD22232B702500123B42353D
:10096C002B70049B606463626B469B8A6063638537
:10097C00628D314BFF2A21D9FF22228500938023DF
:10098C005B0403992000FFF7C9FDFF26638D3A0035
:10099C000C992000002B19D1FFF766FE0028D7D147
:1009AC0020212368254ED9615A6832405A602300B1
:1009BC0040344133197028702070CAE7628D92B2AE
:1009CC00228500938023D2B29B04DAE7FFF774FEF2
:1009DC000028BDD12368626A5B6A1370636A228D3A
:1009EC0001336362638D013A013B9BB26385638D76
:1009FC0092B22285002BC9D0002AC7D100970C9B3C
:100A0C0080212000FFF7A0FD0028A1D1638DFF2BD2
:100A1C0009D98023FF2226855B04009003992000CE
:100A2C00FFF77CFDB2E78023628D9B0492B2228596
:100A3C00D2B20090F2E7C0460024008000E800FE2D
:100A4C00F0B50400413422780300D2B20220202AEF
:100A5C0018D11D0040352E78012E13D01B68223082
:100A6C0020701E68233886431E601E68064F3E4069
:100A7C001E601E6831431960196808431860002015
:100A8C0022702870F0BDC046FFEFFFFFF0B50500E7
:100A9C0041352A780300D2B20220202A17D11C003B
:100AAC0040342678012E12D01B68223028701E6824
:100ABC00233886431E601E68054F09023E403143B1
:100ACC00196019680843186000202A702070F0BD66
:100ADC00FFF0FFFFF0B5040085B0002802D1012023
:100AEC0005B0F0BD0368DB0733D423689B0700D542
:100AFC0087E023681B0700D5C8E023685B0700D597
:100B0C00EBE02368DB061AD56269BC4D0423012A8D
:100B1C0000D057E1696B02260B436B636B6B1A4376
:100B2C006A63FFF7C9FB07006B6B334200D142E1EC
:100B3C00F8216A6BA3698A43DB0013436B63236858
:100B4C009B0600D566E1626A002A00D0A3E1002072
:100B5C00C6E70C21A94D6A680A40042A0BD06B68C1
:100B6C000B40082B0ED1C0226B685202134080221E
:100B7C005202934206D12B689B03B6D56368002BB7
:100B8C00B3D1ACE76368012B13D180232A685B02D5
:100B9C0013432B60FFF790FB80260700B6022B68EF
:100BAC003342A2D1FFF788FBC01B6428F7D903207E
:100BBC0096E7002B15D12B68914A802613402B60A9
:100BCC002B68904AB60213402B60FFF775FB0700A9
:100BDC002B68334289D0FFF76FFBC01B6428F7D911
:100BEC00E5E7052B05D180232A68DB0213432B6034
:100BFC00CBE72B68824A13402B602B68814A134049
:100C0C00C7E70C227D4D6B6813420BD06B68134009
:100C1C00082B16D1C0226B6852021340802212029C
:100C2C0093420ED12B689B0703D5E368012B00D0B0
:100C3C0055E7F8212A6823698A43DB0013432B60AC
:100C4C0057E7E2680123002A0FD02A6802261343D3
:100C5C002B60FFF731FB07002B683342E9D1FFF71C
:100C6C002BFBC01B0228F7D9A1E72A6802269A435E
:100C7C002A60FFF721FB07002B68334200D138E7CD
:100C8C00FFF71AFBC01B0228F6D990E7E269012393
:100C9C005A4D002A10D06A6A022613436B62FFF782
:100CAC000BFB07006B6A334200D026E7FFF704FB0F
:100CBC00C01B0228F6D97AE76A6A02269A436A624E
:100CCC00FFF7FAFA07006B6A334200D115E7FFF71A
:100CDC00F3FAC01B0228F6D969E780220021474DA0
:100CEC005205EB690091134208D1EB691343EB6198
:100CFC00EB6913400393039B012300938027424E1F
:100D0C007F0033683B4206D0A368012B13D12A6ABB
:100D1C0013432B6230E033683B433360FFF7CCFA6C
:100D2C00019033683B42EFD1FFF7C6FA019BC01A22
:100D3C006428F6D93BE70122002B14D12B6A022739
:100D4C0093432B622B6A033293432B62FFF7B4FA63
:100D5C0006002B6A3B4225D0FFF7AEFA2B4B801BCB
:100D6C009842F6D923E7052B0BD1296A013B0B439B
:100D7C002B622B6A1A432A62FFF79EFA022706009F
:100D8C000DE02B6A934304222B622B6A9343C0E73A
:100D9C00FFF792FA1D4B801B984200D907E72B6A8C
:100DAC003B42F5D0009B012B00D0AAE6EB69184A18
:100DBC001340EB61A5E6FFF77FFAC01B022800D8B1
:100DCC00B2E6F4E6053203D16A6B9A436A63AFE686
:100DDC006A6B0226134301226B636B6B93436B6349
:100DEC00FFF76AFA07006B6B334200D1A7E6FFF7F7
:100DFC0063FAC01B0228F6D9D9E6C046001002409F
:100E0C00FFFFFEFFFFFFFBFF007000408813000098
:100E1C00FFFFFFEF0C21534D6A680A408A4209D04C
:100E2C006B680B40082B0ED1C0226B68520213402A
:100E3C00934208D16B6BDB0300D484E6236A012B4D
:100E4C0000D04CE67FE6236A002B11D080266B6B1A
:100E5C00760233436B63FFF72FFA07006B6B334259
:100E6C0000D070E6FFF728FAC01B0228F6D99EE6E0
:100E7C006B6B3D4A802613406B63FFF71DFA07002E
:100E8C0076026B6B334200D15DE6FFF715FAC01B9F
:100E9C000228F6D98BE60C20324B59681D00014014
:100EAC00082944D01B6831490B402B60022A2FD1F2
:100EBC00FFF702FA80260700B6042B68334221D1D3
:100ECC000F22EB6A9343226B1343EB62A16AE36A32
:100EDC006A680B43264980240A4013436B608023C5
:100EEC002A685B0413432B60FFF7E6F90600A404A1
:100EFC002B68234200D02AE6FFF7DEF9801B02287C
:100F0C00F6D954E6FFF7D8F9C01B0228D5D94EE61E
:100F1C00FFF7D2F980240600A4042B68234200D1E9
:100F2C0015E6FFF7C9F9801B0228F6D93FE6012A1E
:100F3C0000D1D4E5C0225868A16A5202DB6A024093
:100F4C008A4200D0CBE50F221340226B934200D093
:100F5C00C5E5F0239B031840E36AC01A431E984171
:100F6C00C0B2BDE500100240FFFFFEFFFFFFFFFE19
:100F7C00FF7FC2FF70B5194C88B010222100684663
:100F8C0001F034F8210004AD10221031280001F0DA
:100F9C002DF80C22124E73681A40082A04D00C2A21
:100FAC001AD1104808B070BD0F206A46990C014048
:100FBC00545CF26A0240A95CC022802052021340A9
:100FCC004002834201D1084802E09342FBD105481C
:100FDC00FFF7A6F86043E5E70348E3E76428000859
:100FEC0000100240006CDC0200127A00F7B505001C
:100FFC000F00002801D10120FEBD01223B4C2368CB
:10100C0013408B421CD329688B0722D4CB072FD4D7
:10101C00012322681A40974259D32B68344C5B0742
:10102C005DD4FFF7A7FF6368324A1B061B0FD35C26
:10103C00D840314B18600020FFF7FEF80020DBE7AA
:10104C00236893430B432360236813409942D2D106
:10105C00D9E7274A4B0704D5E0235068DB0003434C
:10106C005360F02053688343A86803435360CDE773
:10107C006A681F4E012A1AD133689B03BBD5032122
:10108C0073688B4313437360FFF716F901900C23BD
:10109C0072681A406B689B009A42B9D0FFF70CF942
:1010AC00019BC01A154B9842F1D90320A4E7022AE0
:1010BC0003D133689B01E2D49DE7032A03D1736B00
:1010CC00DB03DCD497E733689B07D8D493E722681B
:1010DC009A43226022681A4200D08CE79DE763682D
:1010EC00074A1340EA68134363609AE70020024002
:1010FC0000100240A12800080800002088130000FE
:10110C00FFF8FFFF044B054A5B685B055B0FD35C84
:10111C00034A1068D840704700100240B1280008FC
:10112C0008000020F0B5036885B00500DB0328D566
:10113C0080220021444C5205E3690091134208D1EE
:10114C00E3691343E361E36913400393039B0123B6
:10115C00009380273D4E7F0033683B4241D0C02234
:10116C00236A920013403A4E4DD1236A1E406B689D
:10117C001E43009B2662012B03D1E369354A1340C1
:10118C00E3612B68DA0706D503202F490A6B8243EB
:10119C00A86802430A639A0706D52B492E480A6BA6
:1011AC000240E86802430A635A0306D526492B48D5
:1011BC000A6B0240286902430A639A0606D510207E
:1011CC0021490A6B8243686902430A6300205B056C
:1011DC0017D540211C4A136B8B43A9690B4313632E
:1011EC000FE033683B433360FFF766F801903368D8
:1011FC003B42B4D1FFF760F8019BC01A6428F6D9C2
:10120C00032005B0F0BD69680A409342ADD080233D
:10121C00226A206A11005B0203432362236A10488E
:10122C003140034023622162D3079ED5FFF744F877
:10123C0007000222236A134297D1FFF73DF8094BAE
:10124C00C01B9842F5D9DBE700100240007000404B
:10125C00FFFCFFFFFFFFFFEFFFFFFCFFFFFFF3FFB4
:10126C00FFFFFEFF8813000070B504002569A2681B
:10127C0003682A436569C1692A431868654D0A43A6
:10128C00284002431A605A686348256A0240E068A5
:10129C0002435A60A26998682A43604D2840024371
:1012AC009A605F4A934213D103225E4B1B6B13402F
:1012BC005D4AD05C80231B02994200D19CE0082837
:1012CC0061D8FEF719FF62606760776060607A0032
:1012DC00564A934238D1C0228020524B92021B6B4B
:1012EC0040021340834200D17FE008D8002B00D18C
:1012FC0071E0802301201B02994244D120E0802020
:10130C00800283425ED09342F3D180231B02994228
:10131C0040D163685808464BC0186168FEF700FF5F
:10132C0080B20300434A103B93422CD80F23020097
:10133C009A43130000072268400F1843D060002026
:10134C0000232366636670BD3B4A93420CD1C022D6
:10135C008020344B12031B6BC0021340834244D0D9
:10136C00C4D980200003CCE7344A934233D0344AAA
:10137C00934230D0334A93422DD0334A93422AD0F1
:10138C00324A934227D00120DAE7FFF7BBFE6368AD
:10139C005B0802E0636858082D4BC0186168FEF7C3
:1013AC00BFFE80B20300234A103B9342EBD8236864
:1013BC00D860C4E7FFF7DEFDE9E7636858088023CF
:1013CC001B02EAE780231B029942F6D16368580896
:1013DC0080235B02A0E780231B029942D5D1FFF743
:1013EC0091FE636840005B0896E780231B029942DC
:1013FC00E0D1FFF7BFFDF4E70828C4D8FEF786FE5E
:10140C00EFFFC3FF89FFC3FFF9FFC3FFC3FFC3FF98
:10141C00E6FFC046F369FFEFFFCFFFFFFFF4FFFFCE
:10142C0000380140001002408428000800440040AD
:10143C000024F400EFFF000000480040004C004086
:10144C00005000400014014000180140001C0140F5
:10145C0000127A00436A30B5DA0706D50168284CC9
:10146C004A682240846A22434A609A0706D501687A
:10147C00244C4A682240C46A22434A605A0706D563
:10148C000168214C4A682240046B22434A601A07C7
:10149C0006D501681D4C4A682240446B22434A60C1
:1014AC00DA0606D501681A4C8A682240846B2243FE
:1014BC008A609A0606D50168164C8A682240C46B6D
:1014CC0022438A605A0610D50168134D4A68046C91
:1014DC002A4022434A6080225203944205D14A6832
:1014EC000E4C2240446C22434A601B0606D502680F
:1014FC000B4953680B40816C0B43536030BDC046A5
:10150C00FFFFFDFFFFFFFEFFFFFFFBFFFF7FFFFF66
:10151C00FFEFFFFFFFDFFFFFFFFFEFFFFFFF9FFF6F
:10152C00FFFFF7FFF7B5802704000E0015000193AD
:10153C003F012268D36933409B1B59424B41AB425C
:10154C0001D000201CE0089B0133F3D0FEF7B4FE61
:10155C00019B089AC01A2368824201D3002A10D139
:10156C001A6813490A401A609A68A331FF318A43FA
:10157C009A6020236367A3670023032070342370D1
:10158C00FEBD04211A680A42D3D0DA693A42D0D09F
:10159C001F621A6806490A401A609A68A331FF3123
:1015AC008A439A6020236367A367E367E4E7C04636
:1015BC005FFEFFFFF0B587B00593436F04000D008D
:1015CC0017000220202B49D10138002946D0002ACF
:1015DC0044D08023A2685B019A4204D12369002B7A
:1015EC0001D101423AD1230070331A780220012A2A
:1015FC0034D0012200261A702123E6676367FEF7B8
:10160C005BFE230050331F80023303931F80802323
:10161C00A26804905B019A4204D12369B34201D1C0
:10162C002E001D00230052331A88059B92B20093A2
:10163C00049B002A0AD140212000FFF773FF0028E9
:10164C000BD1202370346360207007E000228021CE
:10165C002000FFF767FF002802D0032007B0F0BD81
:10166C002268002D0BD133880236DB05DB0D138588
:10167C00039B039A1B88013B9BB21380D2E72B7808
:10168C0001351385F4E7000073B500260400C66726
:10169C00FEF712FE236805001B681B0715D4236890
:1016AC001B685B070AD580210E4B00220093C903EF
:1016BC002B002000FFF736FF002811D1202300203B
:1016CC006367A367703420700BE08021054B3200F8
:1016DC000093890303002000FFF724FF0028DED0CD
:1016EC00032076BDFFFFFF0110B5041E01D10120C0
:1016FC0010BD436F002B04D102007032137000F048
:10170C00F3FB2423012122686367136820008B43B9
:10171C001360FFF7A9FD0128E9D0636A002B02D002
:10172C002000FFF797FE236807495A6820000A40FB
:10173C002A215A609A688A439A60012219680A43DE
:10174C001A60FFF7A1FFD3E7FFB7FFFF70B50F22B9
:10175C00FA261724050086B06A44B60011706C4452
:10176C00009601235221FFF73DF800960123220039
:10177C0052212800FFF7CCF8207806B070BD1FB5B9
:10178C00FA2303AC49009B00217062705221009334
:10179C0022000223FFF726F81FBD0000F8B58C21AC
:1017AC000700FFF7D3FF104D8D2128703800FFF78D
:1017BC00CDFF0E4E8E2130703800FFF7C7FF0C4C5A
:1017CC008F2120703800FFF7C1FF0A4B3278187058
:1017DC002B7812021343084A000213802378184313
:1017EC00064B1880F8BDC046B8000020C900002088
:1017FC00C0000020C8000020CA000020D00000203B
:10180C0010B5040003228021FFF7B9FF200000224D
:10181C008121FFF7B4FF200000228621FFF7AFFFE4
:10182C00002280212000FFF7AAFF10BD70B5040034
:10183C0003228021FFF7A3FF2000FFF7AFFF20005A
:10184C0000228021FFF79BFF094B1C88002C0CD039
:10185C00084B21001D882800FEF762FC80B201288D
:10186C0003D8054B9D4200D9044C200070BDC046E6
:10187C00D0000020CA00002024130000FFFF00004D
:10188C0010B5040003228021FFF779FF2000FFF739
:10189C0085FF2000002480210022FFF770FF094BF8
:1018AC001988A1420BD0084B1C882000FEF738FC8D
:1018BC0080B2012803D8054B9C4200D9044C20006F
:1018CC0010BDC046D0000020CA0000202413000028
:1018DC00FFFF0000F8B51600574B002904D0012972
:1018EC0031D08022D20000E0544A1A60002802D184
:1018FC001A6812011A601C68514B524F1888524BCF
:10190C006043850A1D60514B1888514B4443A40A0F
:10191C001C60002D19D13D603B684E4901335B08BA
:10192C004D4A002E17D0012E4ED0802308689B0103
:10193C006843C1181068494B6043081A1860484B3B
:10194C00800B1860F8BD474ACFE7A0022900FEF7CC
:10195C00E7FB3860E0E7402B05D8F9235B000B6010
:10196C00343B1360E1E7802B04D885239B000B608C
:10197C003D4BF6E7C02B03D83C4B0B603C4BF0E7E0
:10198C0080204000834204D89C239B000B60394B81
:10199C00E7E79C204000834204D87023FF330B60A0
:1019AC008D33DEE7CD204000834203D8D2230B6079
:1019BC002933D6E73048834203D818230B60063B03
:1019CC00CFE70E601660B0E7432B05D881239B0050
:1019DC000B60AE23FF33C4E7852B04D88A239B000E
:1019EC000B60264BBDE7C82B03D8254B0B60254B52
:1019FC00B7E785204000834203D8234B0B60234B71
:101A0C00AFE74E20FF30834204D87823FF330B60BE
:101A1C00DE23DFE7CD204000834204D80223FF33CE
:101A2C000B602823D6E71448834200D97DE737237F
:101A3C000B600C3B95E7C046A80000201775000012
:101A4C00CA000020B4000020CC000020D0000020F0
:101A5C00B0000020AC000020D4000020BC0000200E
:101A6C00C4000020E70F0000D10200003F0200007C
:101A7C007B030000FE0300009A020000C10200007C
:101A8C00530200006303000082020000DF03000029
:101A9C0010B5040003228021FFF771FE2000FFF730
:101AAC007DFE802120000022FFF769FE00200C4BF8
:101ABC00198881420FD00B4B1C882000FEF730FB9D
:101ACC0080B2012802D8084B9C4205D80022110094
:101ADC001000FFF7FFFE10BD01204042FBE7C0469F
:101AEC00D0000020CA0000202413000030B58BB0B9
:101AFC001422002105A800F082FA8020204B00035C
:101B0C0059699025014359615A69ED0502408020BD
:101B1C000192019A5969C003014359615A69002421
:101B2C00024080200292029A596980020143596155
:101B3C0080215A69C90202400392039A5A6928000B
:101B4C000A435A615B6900220B4004932021049BD9
:101B5C00FEF7D0FC80239B0105930A4B05A90A488C
:101B6C0006930794FEF70AFC202305A90593280089
:101B7C001F3B069307940894FEF700FC0BB030BD96
:101B8C0000100240000021100008004810B5134B53
:101B9C00134C01222360134B200063600023E2608E
:101BAC00A36023616361A361E3612362FEF7C4FD5B
:101BBC00002801D000F03EF900212000FEF740FF84
:101BCC00002801D000F036F900212000FEF75EFF5E
:101BDC00002801D000F02EF910BDC0460054004082
:101BEC00D80000200E09002010B5040088B0142283
:101BFC00002103A800F003FA134B22689A4220D16B
:101C0C008021124CC902626911480A4362616369FE
:101C1C0003220B400193019BC0239B0003931223CF
:101C2C0003A90493113B059306920793FEF7A6FBB9
:101C3C008021E26989030A43E261E3690B40029364
:101C4C00029B08B010BDC04600540040001002407A
:101C5C00000400487FB54023FA26040003AD2B7026
:101C6C00B6000134631E1B78002B00D17FBD6B7056
:101C7C002A00009602237C210148FEF7B3FDF0E711
:101C8C00D80000201FB58023002A00D0C0231943A0
:101C9C00802303AA1370FA239B00517000937C21BC
:101CAC000223FEF79FFD05B000BD00001FB5802389
:101CBC0003AA13707F3B5370FA239B0000937C2183
:101CCC0002230448FEF78EFD0220FEF7FBFA05B056
:101CDC0000BDC046D800002070B5102698B0342244
:101CEC0000210BA800F08BF932000021684600F0AF
:101CFC0086F91C22002104A800F081F980231B0224
:101D0C001593A023022401259B030BA80B94149478
:101D1C0016930E950F961795FEF7DCFE072301948C
:101D2C00002429006846009302940394FFF75EF99F
:101D3C00222304A8049307940994FFF7F3F918B02D
:101D4C0070BD0000F8B5FEF79BFAFA27FFF7C4FF49
:101D5C00FFF7CCFEFFF71AFF00F0AAF82A48FFF7AE
:101D6C004FFDBF00284C2000FFF792FE274E30603D
:101D7C002000FFF785FD264D28602000FFF756FD5B
:101D8C00244B326818602449244800F041F93B0088
:101D9C0082B222492248FFF70DFC224E2A682249C2
:101DAC00300000F035F93B0082B231001C48FFF7DF
:101DBC0001FC1E4D174B1E491A68280000F028F92B
:101DCC003B0082B229001648FFF7F4FBFFF76EFFC9
:101DDC00002220001100FFF755FF1048FFF73AFFD3
:101DEC00012200212000FFF74DFF3000FFF732FFEA
:101DFC00012209212000FFF745FF2800FFF72AFFE9
:101E0C003800FEF75FFAADE7D80000209400002000
:101E1C008C0000209000002088280008240300205B
:101E2C002404002024020020912800082401002012
:101E3C00992800087047000001200A4B82B099696C
:101E4C000143996180219A69490502400092009AE8
:101E5C00DA690A43DA61DB690B400193019B02B03A
:101E6C007047C046001002407047FEE7704770474D
:101E7C0010B5FEF715FA10BD0A4B10B51968020023
:101E8C00002901D1084919606946186882188A42EC
:101E9C0006D900F081F80C2303600120404210BDEC
:101EAC001A60FCE798000020A8040020704700008E
:101EBC000B480C4B10B50360E1235B0243600C2212
:101ECC00002342618360C36003618361C361036269
:101EDC004362FFF709FC002801D0FFF7ABFF10BDF0
:101EEC00240400200044004010B5040088B01422E3
:101EFC00002103A800F083F8104B22689A421BD1F2
:101F0C0080220F4B9202D96990201143D961D96973
:101F1C00C0051140019101995969114359615B69DF
:101F2C0003A91A400292029B0C2303930A3B0493CD
:101F3C00013B0793FEF722FA08B010BD00440040A5
:101F4C00001002400D4885460D480E490E4A0023EC
:101F5C0002E0D458C4500433C4188C42F9D30B4A51
:101F6C000B4C002301E013600432A242FBD3FFF7B9
:101F7C009DFF00F017F8FFF7E5FEFEE7008000205C
:101F8C000000002070000020F428000870000020E1
:101F9C00A8040020FEE70000014B18687047C046FB
:101FAC000C00002070B500260C4D0D4C641BA410C9
:101FBC00A64209D1002600F043FC0A4D0A4C641BD2
:101FCC00A410A64205D170BDB300EB58984701365A
:101FDC00EEE7B300EB5898470136F2E7EC2800081F
:101FEC00EC280008EC280008F0280008002310B5A5
:101FFC009A4200D110BDCC5CC4540133F8E7030005
:10200C008218934200D1704719700133F9E7000030
:10201C000EB410B59DB002A9029008610B48822441
:10202C0088604861012040421FABC881084804CB3E
:10203C00A400006801938C8100F06EF80023029AD2
:10204C0013701DB010BC08BC03B01847FFFFFF7F16
:10205C000C000020F0B58E6885B007000C000392D0
:10206C0001939E4239D890238A89DB001A4234D0DE
:10207C000325096923685B1A0293636902985D431F
:10208C00EB0F5D19019B6D1001331B18AB4200D98E
:10209C001D00530532D52900380000F031FB061E17
:1020AC0009D10C233B6040230120A28940421343F9
:1020BC00A38105B0F0BD029A2169FFF797FFA389B0
:1020CC00144A1A4080231343A381029B2661F618FD
:1020DC0026606561019EED1AA560019BB34200D29A
:1020EC001E0032000399206800F0ADFAA3680020AE
:1020FC009B1BA36023689E192660DAE72A00380030
:10210C0000F05CFB061EE0D12169380000F0AEFA4D
:10211C00C7E7C0467FFBFFFFF0B59FB00290059369
:10212C008B890F0016001B0611D50B69002B0ED1E5
:10213C00402100F0E5FA38603861002805D10C2305
:10214C00029A013813601FB0F0BD40237B6100235D
:10215C0006AD6B6120336B761033AB76340023788D
:10216C00002B47D1A31B04930DD0A31B32003900C5
:10217C000298FFF76FFF431C00D1B5E06A69049B1E
:10218C00944663446B612378002B00D1ACE00122B0
:10219C00002352426A6002A95432521801342B6057
:1021AC00EB60AB601370AB65584E052221783000A4
:1021BC0000F03EFA621C002820D12968CB0604D519
:1021CC00532302AE20309B1918700B0704D55323F0
:1021DC002B2002AE9B19187023782A2B16D00020C6
:1021EC000A21099B2278303A092A55D9002815D0A2
:1021FC00099313E0252BB5D00134B0E70123801BE4
:10220C008340296814000B432B60CDE7059B181DF8
:10221C001B680590002B39DB0993140023782E2BB7
:10222C000BD16378621C2A2B3ED1059B02341A1DFC
:10223C001B680592002B34DB0793354E2178032263
:10224C00300000F0F5F9002806D04023801B8340B5
:10225C002A68013413432B60217806222D48661C12
:10226C00297600F0E5F9002846D02B4B002B2FD116
:10227C002968059B0722C90528D59B189343083369
:10228C0005936B69039A9B186B6167E75B42EB6084
:10229C0002230B432B60C0E74B4301349B180120F6
:1022AC00A0E701235B42C7E7002314000A201A00B1
:1022BC006B6021783039092903D9002BBDD00792E6
:1022CC00BBE74243013452180123F2E70733D5E749
:1022DC0005AB00933A00114B2900029800E000BFB7
:1022EC000390039B0133CCD1BB890B985B0600D4C4
:1022FC0029E70120404226E705AB00933A00074B43
:10230C002900029800F07AF8EAE7C046B9280008DC
:10231C00BF280008C3280008000000006120000846
:10232C00F7B5150001938A680B6900900C00934275
:10233C0000DA130022002B6043321278002A01D0FD
:10234C0001332B6023689B0602D52B6802332B606C
:10235C00062723681F4027D0230043331B785A1EBF
:10236C0093412268920630D422000199433200989E
:10237C00089EB047431C25D0062320682A68E168D4
:10238C0003400025042B03D18D1AEB43DB171D40B2
:10239C00A3682269934201DD9B1AED180027BD4208
:1023AC0020D1002010E00137E3682A689B1A9F4275
:1023BC00D2DA22000123193201990098089EB04705
:1023CC00431CF0D101204042FEBD3020E1184331C6
:1023DC00087021005A1C45310978A2184332023387
:1023EC001170C1E7220001231A3201990098089E4E
:1023FC00B047431CE6D00137D1E70000F0B58BB0F5
:10240C0006920A0043320793059004920A7E0C0050
:10241C00109B6E2A00D18FE017D8632A2CD008D8D5
:10242C00002A00D199E0582A54D026004236327046
:10243C0029E0642A01D0692AF7D121681A680806B4
:10244C0023D5111D1960156825E0732A00D188E089
:10245C0008D86F2A29D0702AE7D1202209680A43AC
:10246C00226003E0752A20D0782ADED12200782160
:10247C00453211706C4A30E00E001A684236111D5C
:10248C00196013683370012379E04906D9D5111D01
:10249C0019600023D55E002D03DA2D23049A6D42BA
:1024AC001370624B0A2703932FE020681968050606
:1024BC0003D5081D18600D6805E04006F9D50D68B8
:1024CC00081D1860ADB2594B082703936F2A18D01A
:1024DC000A2716E045310A70544A03921A6821689B
:1024EC00101D18601568080622D5CB0702D52023CD
:1024FC00194321601027002D03D1202322689A4311
:10250C0022602300002243331A706368A360002BFF
:10251C005CDB0422216891432160002D58D1049E7C
:10252C00002B64D02600039B42361B7833705EE090
:10253C004806DAD5ADB2D8E709681A68080605D599
:10254C00111D1960136862691A6006E04906F7D517
:10255C00111D19601368A28A1A800023049E23613E
:10256C0054E01A68111D1960166800216268300069
:10257C0000F05EF8002801D0801B60606368236166
:10258C000023049A137041E02369320006990598E0
:10259C00079DA847431C43D0236800259B070FD4F5
:1025AC00099BE06898423DDA18003BE022000123C9
:1025BC00193206990598079EB047431C30D0013557
:1025CC00E368099A9B1A9D42F0DBE9E7002DA9D03C
:1025DC00049E28003900FDF729FE039B013E5B5C3D
:1025EC00280033703900FDF79BFD051EF1D1082F33
:1025FC0009D12368DB0706D563682269934202DCA4
:10260C003023013E3370049B9B1B2361079B09AA5B
:10261C0000932100069B0598FFF782FE431CB3D163
:10262C00012040420BB0F0BDDB280008CA2800088E
:10263C00C9B28218904201D10020704703788B42B6
:10264C00FBD00130F6E710B5884202D98B189842BE
:10265C0008D300239A4207D0CC5CC4540133F9E769
:10266C008B5C8354013AFBD210BD000070B50500A1
:10267C00002910D00C1F2368002B00DAE418280066
:10268C0000F0D4F81D4A1368002B05D16360146068
:10269C00280000F0CCF870BDA34209D9216860185D
:1026AC008342F3D118685B6841182160EEE7130090
:1026BC005A68002A01D0A242F9D919685818A042C8
:1026CC000BD120680918581819608242E0D11068A3
:1026DC005268411819605A60DAE7A04202D90C23FB
:1026EC002B60D5E721686018824203D110685268CC
:1026FC004118216062605C60CAE7C0469C00002003
:10270C00032370B5CD1C9D43083506000C2D1ED23D
:10271C000C25A9421DD8300000F088F8254A146811
:10272C002100002919D1244C2368002B03D130003F
:10273C0000F06AF820602900300000F065F8431CB6
:10274C002CD10C233000336000F071F803E0002D25
:10275C00DFDA0C233360002070BD0B685B1B1AD4CE
:10276C000B2B03D90B60CC18256003E08C420ED1E7
:10277C0063681360300000F05AF8200007220B3019
:10278C00231D9043C31AE7D05A42E250E4E74B684A
:10279C0063600C00EEE70C004968C2E70323C41C1D
:1027AC009C43A042E0D0211A300000F02DF8431CCD
:1027BC00DAD1C6E79C000020A0000020F8B5070085
:1027CC000D001600002905D11100FFF799FF040038
:1027DC002000F8BD002A03D1FFF748FF3400F7E7CB
:1027EC0000F026F82C008642F2D931003800FFF7B1
:1027FC0087FF041EECD029003200FFF7F7FB2900FD
:10280C003800FFF733FFE3E7002370B5064C0500F3
:10281C0008002360FFF730FB431C03D12368002B17
:10282C0000D02B6070BDC046A404002070477047D8
:10283C000B1F1B68181F002B01DA0B58C0187047B0
:10284C00F8B5C046F8BC08BC9E467047F8B5C04603
:08285C00F8BC08BC9E46704761
:1028640002030405060708090A0B0C0D0E0F1010CD
:102874000102030405060708090A0B0C0D0E0F10CC
:10288400000408026C756D3A256C64200046533AC6
:10289400256C64200049523A256C64200000000035
:1028A40000000000000102030406070809000000FC
:1028B4000001020304232D302B2000686C4C0065BA
:1028C4006667454647003031323334353637383958
:1028D400414243444546003031323334353637388B
:0828E40039616263646566005E
:0428EC00E5000008FB
:0428F000BD0000081F
:1028F400010000000400000000127A001000002013
:1029040000000000000000000000000000000000C3
:1029140000000000000000000000000000000000B3
:1029240000000000000000000000000000000000A3
:102934000000000000000000000000000000000093
:102944000000000000000000000000000000000083
:102954000000000000000000000000000000000073
:0400000508001F517F
:00000001FF
