:020000040800F2
:1000000000800020713A00089539000897390008EF
:1000100000000000000000000000000000000000E0
:1000200000000000000000000000000099390008F6
:1000300000000000000000009B3900089D39000806
:10004000C13A0008C13A0008C13A0008C13A0008A4
:10005000C13A0008C13A0008C13A0008C13A000894
:10006000C13A0008C13A0008C13A0008C13A000884
:10007000C13A0008C13A0008C13A0008C13A000874
:10008000C13A0008C13A0008C13A0008C13A000864
:10009000C13A0008C13A0008C13A0008C13A000854
:1000A000C13A0008C13A0008C13A0008C13A000844
:0C00B000C13A0008C13A0008C13A00083B
:1000BC0010B5064C2378002B07D1054B002B02D032
:1000CC00044800E000BF0123237010BD7000002025
:1000DC00000000006C430008044B10B5002B03D04B
:1000EC000349044800E000BF10BDC04600000000FA
:1000FC00740000206C43000802B4714649084900A2
:10010C00095C49008E4402BC7047C04603B471467A
:10011C00490840004900095E49008E4403BC704701
:10012C00002243088B4274D303098B425FD3030A2A
:10013C008B4244D3030B8B4228D3030C8B420DD33D
:10014C00FF22090212BA030C8B4202D312120902CB
:10015C0065D0030B8B4219D300E0090AC30B8B4209
:10016C0001D3CB03C01A5241830B8B4201D38B03B7
:10017C00C01A5241430B8B4201D34B03C01A52415C
:10018C00030B8B4201D30B03C01A5241C30A8B429F
:10019C0001D3CB02C01A5241830A8B4201D38B028A
:1001AC00C01A5241430A8B4201D34B02C01A52412E
:1001BC00030A8B4201D30B02C01A5241CDD2C309A0
:1001CC008B4201D3CB01C01A524183098B4201D31C
:1001DC008B01C01A524143098B4201D34B01C01A07
:1001EC00524103098B4201D30B01C01A5241C3087F
:1001FC008B4201D3CB00C01A524183088B4201D3EE
:10020C008B00C01A524143088B4201D34B00C01AD9
:10021C005241411A00D20146524110467047FFE745
:10022C0001B5002000F006F802BDC0460029F7D049
:10023C0076E770477047C0469E2110B5C905041C6F
:10024C0001F0FAFC002803D1201C00F0C9FA10BD03
:10025C009E21201CC90500F027F900F0C1FA80236B
:10026C001B069C466044F2E7F8B557464E46454699
:10027C00DE46E0B54702460088467F0A360EC40FBC
:10028C00002E47D0FF2E24D0FB008027FF041F43F5
:10029C00002399469A467F3E43465D025800DB0F89
:1002AC006D0A000E984643D0FF283BD0EB0080250A
:1002BC000022ED041D437F383618731C41469B46C3
:1002CC004B46614013430F2B64D875489B00C358B1
:1002DC009F46002F42D108239946063BFF269A469B
:1002EC00DAE74146022A28D0032A00D1CEE0012ABF
:1002FC0000D0ACE0114000200022CCB24002D2056C
:10030C00400AE407104320433CBC90469946A24661
:10031C00AB46F8BD002F15D104239946033B0026AC
:10032C009A46B9E7FF200222002DC5D00322C3E76D
:10033C00002D19D100200122BEE70124FF220C4020
:10034C000020DBE7380001F081FC7626431F9F403C
:10035C0000237642361A99469A469DE70C23994615
:10036C00093BFF269A4697E7280001F06FFC431FD4
:10037C009D4076235B42181A00229DE780200024C2
:10038C00C003FF22BAE73D005246ABE73D00210017
:10039C005246A7E73B0C9C462A04120C2B0C14006B
:1003AC00604665463F043F0C7C4342435D437B43C0
:1003BC00270C9B18FF18BA4203D980235B029C467A
:1003CC00654424043A04240C121993015C1EA341C5
:1003DC003F0C920E7D191A43AD0115432B0104D528
:1003EC0001235E466A081D40154332007F32002A05
:1003FC0025DD6B0704D00F232B40042B00D00435D4
:10040C002B0103D53200274B80321D40FE2A94DC91
:10041C000124A801400AD2B20C406FE78020C0032F
:10042C00074207D0054205D128434002400A444602
:10043C00FF2263E738434002400AFF225EE70124B3
:10044C00A31A1B2B05DD0C400022002056E75E464C
:10045C00CBE72A002020DA40C31A9D402B005D1EFA
:10046C00AB4113435A0704D00F221A40042A00D080
:10047C0004335A0104D5012401220C4000203DE72D
:10048C0001249B01580A0C40002237E780200124EC
:10049C00C00328434002400A0C40FF222EE7C0460E
:1004AC00A4430008FFFFFFF7F0B54F46D64646467B
:1004BC004400C0B5C20F47024802400A8446664653
:1004CC007B0A4800C90F9A46240E1500DB00000E6B
:1004DC008946F600FF2800D18FE001214F464F409E
:1004EC003900914266D0221A002A00DC9DE00028D7
:1004FC003DD1002E00D18BE0511E002900D0B5E07B
:10050C0001249B1B5A0144D59B019F09380001F023
:10051C009DFB05388740844200DD96E0041B3A00C1
:10052C0020200134E240041BA7403B005F1EBB416E
:10053C00002413435A0704D00F221A40042A00D077
:10054C0004335A0127D50134FF2C00D179E0012264
:10055C009B015B0AE4B22A405B02E405580AD2070D
:10056C00204310431CBC90469946A246F0BDFF2C7C
:10057C00E0D08021C9040E431B2A7BDC31002020F3
:10058C00D140821A9640721E96410E439B1B5A0113
:10059C00BAD45A07D0D10122DF082A40FF2C33D11C
:1005AC00002F00D1A8E08023DB033B435B025B0AF6
:1005BC00FF24D1E7211A00294CDD00282AD0FF2C7A
:1005CC00B8D08020C00406431B2900DDAFE030000A
:1005DC002027C840791A8E40711E8E4106439B1904
:1005EC005901D6D50134FF2C00D185E001227A497E
:1005FC001A405B080B4013439CE7002E00D070E7B9
:10060C006BE73B1EC5D100227B025B0AE4B2A3E779
:10061C0014008FE7002E4DD0481E002857D19B198F
:10062C0001245A01B5D50224E0E7002A25D1621C29
:10063C00D2B2012A72DD9F1B7A0135D5F71A0D0053
:10064C0064E7012200232A4086E73B00634A241A10
:10065C0013406FE700296CD1611CC8B201284EDD34
:10066C00FF2949D09B195B080C0063E7FF2A41D096
:10067C000A0081E701269B1B89E7002C1CD0FF2870
:10068C0021D08024E404524223431B2A00DD96E04F
:10069C001C002025D440AA1A93405A1E9341234390
:1006AC00F31A04000D002DE7002F00D02EE70022D6
:1006BC000024A9E70C003DE7002B58D0D243002AB8
:1006CC00EED0FF28E1D13300FF240D0032E7FF29E3
:1006DC0010D0010078E7002B6ED0FF24002E00D143
:1006EC0028E780225146D203114203D061461142C1
:1006FC0000D13300FF241DE7FF2400232CE7002C3E
:10070C00E9D1002B63D0002E00D113E79B195A01BD
:10071C0000D43EE7314A0C0013400BE7002C1ED1ED
:10072C00002B2FD1002E4FD033000D0002E70126F5
:10073C0055E7002C1FD1002B43D0C94300290BD007
:10074C00FF2839D01B2944DC1C002027CC40791A07
:10075C008B40591E8B4123439B19040040E7002B0F
:10076C001AD1002E24D180270022FF031BE733006F
:10077C0004000D00DEE6FF281ED08024E40449426C
:10078C002343DFE7002E00D1D4E69F1B7A0100D46F
:10079C0037E7F31A0D00CDE6FF24002E00D1C9E691
:1007AC0080225046D2031042A4D060461042A1D100
:1007BC0033000D00FF24BDE63300FF24BAE601230D
:1007CC006EE733000400B5E6002700221CE7330077
:1007DC00B0E60123C0E7C046FFFFFF7DFFFFFFFB34
:1007EC0041024300C20F490A1B0E00207E2B0DDD77
:1007FC009D2B0CDC802000040143952B0ADC9620F9
:10080C00C31AD9404842002A00D108007047034B54
:10081C00D018FBE7963B9940F4E7C046FFFFFF7FFB
:10082C0010B5041E27D001F011FA9E231B1A962B2B
:10083C000ADC9622D21A94406402640ADBB2640287
:10084C00DB05600A184310BD992B17DC9922D21ACC
:10085C00002A27DD94402200134C1440510704D089
:10086C000F210A40042A00D00434620112D4A401DE
:10087C00640ADBB2E3E700230024E0E7B92221009D
:10088C00D21A91400A00511E8A410521091ACC4006
:10089C001443DBE7044B1C409F23A4011B1A640A7E
:1008AC00DBB2CCE72200D7E7FFFFFFFBF0B55746E2
:1008BC004546DE464E46E0B54C000E0387B08346F7
:1008CC0092461D008046360B640DCF0F002C4FD086
:1008DC006F4B9C4235D08023420F1B04F600134310
:1008EC0033439946C30098466A4B00269C46002326
:1008FC00644403932B031B0B9B466B00ED0F50467C
:10090C005B0D01955ED0624A934253D05A46D1009A
:10091C008022400F120402430A4393465246D100F0
:10092C005C4A944600226344380068408446029036
:10093C00E41A16430F2E00D9B4E0574BB6009B595E
:10094C009F460300334399466CD1002398460233EB
:10095C0008260393CEE7CB464146039A0197022A19
:10096C0065D1019B4A4C9C460023002298466BE0C3
:10097C000300334399464ED0002E00D1BCE1300029
:10098C0001F064F903000B3B1C2B00DDACE11D22D4
:10099C00D31A5A460100DA4008398E40130033430B
:1009AC0099465B468B40984600233C4C0026241A03
:1009BC0003939FE751465A46114329D1002293468F
:1009CC000232B1E7594601431ED05B46002B00D1E1
:1009DC009EE1584601F03AF903000B3B1C2B00DD5D
:1009EC008FE102005946083A91408B461D21CB1AE3
:1009FC005146D9400B0059460B4351469B469140FA
:100A0C00264B00221B1A8FE7002301229B468BE703
:100A1C005146032288E7002398460133042600241C
:100A2C00039367E70323B14603930C2662E7032A7B
:100A3C0000D15CE2019B012A00D0E4E113409C460A
:100A4C00002300240022984600211203130B0A0DE8
:100A5C0012051A432305124C4046224013436246AA
:100A6C005B00D2075B081343190007B03CBC9046EF
:100A7C009946A246AB46F0BD002380229C46120349
:100A8C009846034CE0E70023014C00229846DBE734
:100A9C00FF07000001FCFFFFE44300080DFCFFFF13
:100AAC00FFFF0F80D94500D939E100D134E1002393
:100ABC0046464D469A46013C5B460A0E1B021A43BB
:100ACC000B02170C039313041B0C390028009046DF
:100ADC000193FFF725FB0200019B83465A43280034
:100AEC0039009146FFF7A2FB350C09040D43A945CB
:100AFC000DD95B464544013BA84500D93AE1A945CF
:100B0C0000D837E102235B429C464544E3444B4604
:100B1C00EB1A390018000493FFF702FB019B050048
:100B2C004343390004989946FFF780FB33040904CA
:100B3C001B0C0B43994509D943446A1E984500D9AF
:100B4C001AE1994500D817E1023D43444A469B1AE5
:100B5C005A4612042A4303999346100C0A0C9146E8
:100B6C0009045A46090C4E460D001204120C45435A
:100B7C00059151437243704352190E0CB2189542B1
:100B8C0003D980256D02AC466044150C090412048F
:100B9C00090C28185218834200D2CEE000D1C8E0CC
:100BAC001D1A53469E1AB24592415242AB1A9A46AE
:100BBC00984500D117E139001800FFF7B1FA019BF5
:100BCC0005004343390050460493FFF72FFB04986C
:100BDC000B04310C1943884209D941446B1E8845DA
:100BEC0000D907E1884200D804E1023D4144049B4E
:100BFC00CB1A180039000493FFF792FA019B824636
:100C0C004343390004980193FFF710FB01980B0440
:100C1C003104090C194388420DD953464144013B18
:100C2C00884500D9E8E0884200D8E5E002235B4221
:100C3C009C464144E244019B2D04CE1A5146294363
:100C4C00059D4F462A000B04080C1B0C5A434543C8
:100C5C007B4378435B19170CFB189D4203D9802505
:100C6C006D02AC4660441D0C12041B04120C2818B7
:100C7C009B18864200D293E000D18EE001231943E9
:100C8C00A04BE318002B00DC99E04A0700D09EE053
:100C9C005A46D20106D55A469B4B1A40802393469E
:100CAC00DB00E318994A934268DD0123029A984CC1
:100CBC001A400023944698460022C5E680224B46F3
:100CCC00120313420AD05B46134206D11A43120395
:100CDC00120BAC4688468E4CB6E64B461A431203B2
:100CEC00120BBC468A4CAFE603005A46283B9A408E
:100CFC0000239146984657E6584600F0A7FF20304F
:100D0C0040E603005246283B9A400021934677E682
:100D1C0000F09CFF20305FE6884500D2C7E64B46CA
:100D2C00DE075D0843465B081E434346DB079A46D5
:100D3C00C2E60025924500D333E7039E5946B446DC
:100D4C00E244B245AD416D424544EB18013998453A
:100D5C0007D2984200D97FE000D1BCE01D1A8B4627
:100D6C001FE79845FAD1039D5545F2D943468B466A
:100D7C001D1A16E79B46CAE61500E7E65A46C9084F
:100D8C0052070A435B0590465C0D5A4601230299B3
:100D9C0052021940120B8C4656E6002B00D16FE71D
:100DAC0046444A1EB04529D91100864200D065E759
:100DBC00039A934200D061E762E701214942012086
:100DCC00C21A382A21DD029B03409C4638E60F22CA
:100DDC000A40042A00D15BE70A00111D914292419E
:100DEC005242934454E7474BE318002BE5DD0122B4
:100DFC005242F2E71D00FAE69A461CE7B04239D897
:100E0C006ED011003AE702933AE71F2A3CDC20230C
:100E1C009B1A0C005846994098404B1E99415B46D2
:100E2C00D440D340204308431A00430709D00F2372
:100E3C000340042B05D00100081D88429B415B42F6
:100E4C00D21813023AD50123029A01241A40002326
:100E5C00944698460022F7E5022149428C46039DB0
:100E6C00E344AC46E244AA45AD416D424544ED181D
:100E7C002D1A96E68A1E03994D008D4289414942EE
:100E8C004144761803958FE71F204042C31A5846F9
:100E9C00D8400300202A28D040205D46821A954075
:100EAC0029434A1E91411943072300220B4009D0C4
:100EBC000F2300220B400800042BBDD10100530767
:100ECC005202120BC90819430123884602990024C7
:100EDC0019408C46B8E55245BED88B46002560E6D5
:100EEC00039D9D42C6D3110062E70025D8E78022FE
:100EFC005B4612031A43019B1203120B9C46884655
:100F0C00034CA1E5FF030000FFFFFFFEFE070000FE
:100F1C00FF070000F0B557464546DE464E46E0B5A5
:100F2C000C0398464E00230B87B0070092469B4655
:100F3C00760DCD0F002E6BD06D4B9E4235D080249C
:100F4C005B46420F2404DB0014431C43C300994648
:100F5C00684BA3469C4600230027664402934346F5
:100F6C001C035A00DB0F5046240B520D984600D13F
:100F7C0076E05F4B9A426DD08023410F1B040B43EC
:100F8C005C49E4008C461C43C3000020624441468B
:100F9C00B6186940721C0191944607430F2F00D973
:100FAC00B0E0554ABF00D25997465B460343994679
:100FBC0000D087E000239B46023308270293CEE73C
:100FCC0042460192022867D0032800D10EE2012884
:100FDC0000D062E1002300240022994601990140CF
:100FEC00CDB2002112030B0D120B1B051343434A08
:100FFC00240513401C436400ED0764082C43484649
:10100C00210007B03CBC90469946A246AB46F0BDC9
:10101C00034399464FD05B46002B00D189E15846DB
:10102C0000F014FE03000B3B1C2B00DD7AE11D22AB
:10103C00D31A3A0001005C46DA4008398C401300A0
:10104C008F4023439B46B94600232D4E0027361A6A
:10105C00029384E7534623432AD10024022096E7C7
:10106C005346234320D0002C00D157E1200000F040
:10107C00EDFD03000B3B1C2B00DD49E11D21CB1AC0
:10108C0051460200D9405346083A944093400C43D1
:10109C001B4A121A00207AE70125019B144C1D40B3
:1010AC000023002299469CE70024002201206EE7D1
:1010BC00534603206BE700239B460133042700268D
:1010CC0002934CE7032381460C27029347E78022C7
:1010DC000023002512039946054C82E75C464B46DB
:1010EC0002986FE75C464B46019502986AE7C0464A
:1010FC00FF07000001FCFFFF24440008FFFF0F80E6
:10110C000DFCFFFF4A464946170C1A0C1B041B0C1E
:10111C0008041900000C41431500884619007D4352
:10112C007943039589462900150045434D440295A2
:10113C0045462D0CAA46029D5544A94506D98A461A
:10114C00802149028946CA4451460391290C0491D5
:10115C00414609042D04090C88462900250C240459
:10116C004144240C059121004143884621007943D8
:10117C008A466843414650448146080C48446F43B4
:10118C00824503D98021490289464F44010C894686
:10119C0039004944029141460F0404993F0C88469A
:1011AC000004C01980444146049159460F0C0904AF
:1011BC00090C884659438A463900514389464146B1
:1011CC004A435146090C8B467B43D2185A449342EE
:1011DC0003D980235B029B46D94451460904090C70
:1011EC008A46414661437C43130C12044B445244DF
:1011FC00A1468A463C0041466C434D4351464D4402
:10120C000F0C7D19A94503D9802149028846444415
:10121C00049F0399B84641448B4683458041414223
:10122C008846514608042F04000C3F185846029972
:10123C0010188946904292414F44BA465242994600
:10124C009346C244D144CB448F42BF41C2458941ED
:10125C0099459B41934592417F4249422D0C524204
:10126C000F435B4213437F19FF185B463C19DB0DA0
:10127C00059A64021C43430213435D1EAB415A465C
:10128C00C00D034352021343E20156D501205A0804
:10129C0003401343E207134364085A486044002890
:1012AC004DDD5A0709D00F221A40042A05D01A1D09
:1012BC009A429B415B42E4181300E20104D5802062
:1012CC00514AC00014406044504A904200DDE3E6AD
:1012DC000125DB0862071A436402019B9146220B2D
:1012EC004405640D1D407CE68022594612031142D0
:1012FC0008D0144206D122431203120B45469946DC
:10130C00434C6EE65B461A431203120B404C68E6E4
:10131C0003005446283B9C400023B9E600F096FCA1
:10132C002030A6E60300283B9F400023BB4699468D
:10133C008AE600F08BFC203074E6B446ADE701255C
:10134C002A1A382A06DD019B00241D4000230022A6
:10135C00994646E61F2A21DC20252000AD1A1E00E6
:10136C00AB40A840D6405D1EAB4130431843D4403F
:10137C00430709D00F230340042B05D00300181D8D
:10138C0098429B415B42E418230221D50125019B25
:10139C0001241D4000230022994622E61F2521002E
:1013AC006D42281AC1400800202A1DD05F35AA1AA8
:1013BC00944023435C1EA341072503431D40002298
:1013CC00002D09D00F2200241A401800042AD6D16F
:1013DC00030065076402220BDB082B4301259946A9
:1013EC00019B00241D40FCE50024E2E7802201253E
:1013FC001203224301991203120B0D409946044C1F
:10140C00EFE5C046FF030000FFFFFFFEFE070000F4
:10141C00FF070000F0B54646D6464F460C03C0B554
:10142C00CD0F4E00610A440F0C43C1005800400D13
:10143C0084468A460F001903500F490A0143C648D7
:10144C00760DA846DB0FD200844500D1D8E00120F0
:10145C004340AB4200D1A6E06046351A002D00DCBB
:10146C0005E1002810D10B00134300D1D7E06B1E0F
:10147C00002B00D04BE153469F1ABA458041641AA9
:10148C004042241A01261EE0B34B9E4248D08023D2
:10149C001B041943382D00DD19E11F2D00DD4CE133
:1014AC0020230F005B1B10009A409F40E840531E06
:1014BC009A41E940074317435346DF1B611ABA456B
:1014CC00A44164420C1B230200D4C5E06402650AEB
:1014DC00002D00D1F6E0280000F0B8FB0300083B1B
:1014EC001F2B00DDE9E020223C00D21A9D40D440A5
:1014FC009F4025439E4200DDDBE09E1B731C1F2B8F
:10150C0000DD0AE120223800D21A290097402C0075
:10151C009140D8407A1E9741DC40002601430F438E
:10152C007B0709D00F233B40042B05D03B1DBB424E
:10153C00BF417F42E4191F00230225D5864B01369B
:10154C009E4200D1AFE0854B01251C40434662070B
:10155C00FF08640276051743240B760D1D4000210D
:10156C002403230B0C0D7E4A24051C431440330525
:10157C0023435B00ED075B082B43380019001CBCB0
:10158C0090469946A246F0BD012543466207FF08E6
:10159C001743E4081D40704B9E4236D02403760559
:1015AC00240B760DDBE76346F31A002B00DC94E08A
:1015BC006046002835D068488642B1D080273F0469
:1015CC003943382B00DCFDE00A43170000217A1E5A
:1015DC009741574457458041091944420C1923023D
:1015EC003AD55D4B01369E4200D14BE101225B4B5B
:1015FC001C407B0817401F43E207174364088FE722
:10160C000800104300D024E721E723003B4300D11E
:10161C00B9E18022120314432403240B9FE72E000C
:10162C007EE70800104300D1CAE0581E844600280B
:10163C0000D0E7E0524452458041641840422418DF
:10164C0017000126230207D50226CFE764462C4358
:10165C0000D1B3E12C0067467B0700D062E763073B
:10166C00FF081F4301254346E4081D4093E7002D66
:10167C0078D1751C6D056D0D012D00DCF2E0504626
:10168C00801A8245BF41651A7F42ED1B84462802B1
:10169C0000D48CE05046171ABA4292410C1B5542AA
:1016AC00651B984614E70125434600241D4000277E
:1016BC0055E72A4CF61A2C4032E73D002838854075
:1016CC00002717E7380000F0C1FA203006E70A437C
:1016DC00170000217A1E9741EEE6002B00D0E5E0C2
:1016EC00731C9C465B055B0D012B00DC9FE01A4BC9
:1016FC009C4500D1C5E0524452458041641840429B
:10170C002418E707520817436408664608E712488E
:10171C00854200D185E01D00BCE629001F3EF1404A
:10172C00202B00D17FE04022D31A9D402F437D1EF9
:10173C00AF4100240F4300268EE72B000F00203B07
:10174C00DF40202D71D040235D1BA9400A43511E60
:10175C008A4100211743AFE6FF070000FFFF7FFF20
:10176C00FFFF0F80002E3ED0B34EB44545D08026EF
:10177C0036046D423443382D00DDA8E01F2D00DD0A
:10178C001FE1202627005046761BB740E840074350
:10179C005046B040461EB041EC403843171ABA428E
:1017AC0092410C1B5242A41A664698468BE664463C
:1017BC0067462C4300D08BE6002500260027EAE67E
:1017CC001E00ADE61F2B60DC2027F81A0F008446A4
:1017DC0087401000D840074360468240501E82412B
:1017EC00D9401743F5E626005046064305D0ED4395
:1017FC00002DD3D0904EB445BDD10C0017006646D9
:10180C0098468DE68C4883420BD06346D9E6002D72
:10181C0000D096E00800104300D1E2E00C00170065
:10182C009846854E7CE6002580E700218EE7230054
:10183C0050460343002E00D0A8E0002B00D1DEE080
:10184C000B00134300D16BE652445245804164189F
:10185C00404224181700230200D4FDE6774B66465D
:10186C001C405DE6250050460543002ECFD1002DCF
:10187C004FD10C00144300D1A0E00C001700984687
:10188C004EE666460024002785E61F000800203F30
:10189C00F8400700202B00D18EE04020C31A99405D
:1018AC000A43511E8A410021174392E6002E14D19F
:1018BC0026005046064362D0DB43002B5CD18718D0
:1018CC009742924164185242A418664687E65046E5
:1018DC002043441EA041002460E7574EB4454ED02F
:1018EC00802636045B423443382B00DD7FE01F2B0F
:1018FC0000DD8BE0202627005046F61AB740D84072
:10190C0007435046B040461EB0410743DC40BF1869
:10191C00D6E70D00154300D102E65046801A8245E9
:10192C00BF41651A7F42ED1B8446280200D48DE628
:10193C005046171ABA4292410C1B5242A41A9846AE
:10194C00EEE50D00154300D16BE750466707C00864
:10195C0007438020E4080003044207D0CD08054269
:10196C0004D12C009846D70849070F437B0FE4009D
:10197C001C43FF00304ED3E52F4EB445B4D10C00C0
:10198C0017006646CCE500270024E8E5002B39D08B
:10199C000B00134300D144E7C008670707438020BE
:1019AC00E40800030442E1D0CB080342DED1D7089F
:1019BC0049070F431C00D9E7002171E700250027D8
:1019CC00E9E52E002700203EF740202D2FD04026A1
:1019DC00751BAC4050462043441EA04100243843A4
:1019EC00DCE6802400252403134E0027D3E5504663
:1019FC0020430700781E87410024BF1860E70C00C5
:101A0C0017008DE50C0017000B4E89E51E00270012
:101A1C00203EF740202B0CD04026F31A9C40504619
:101A2C002043441EA04107430024BF1848E700246C
:101A3C00D0E70024F3E7C046FF070000FFFF7FFF5D
:101A4C0070B5002830D0C317C4185C40C50F2000F7
:101A5C0000F0FCF8174B184A1B1AD21A1F2A18DD73
:101A6C00164AD21A9440002224035B05240B5B0D0A
:101A7C000021100024030A0D240B12052243104CE4
:101A8C001B05224013435B00ED075B082B43190039
:101A9C0070BD210091400A000B21081AC4405B055F
:101AAC002403240B5B0DE3E7002500230024002214
:101ABC00DEE7C0461E0400003304000013040000DF
:101ACC00FFFF0F80F0B54C00640D0B03621C450F3B
:101ADC005B0A52052B43C90FC500520D012A28DDA4
:101AEC003A4AA618FE2E1BDC002E3EDD80010200B9
:101AFC00501E82416D0F2A43DB0013435A0704D05A
:101B0C000F221A40042A00D004338022D2041A4037
:101B1C005AD00136FF2E03D09B015B0AF4B201E0D0
:101B2C00FF2400235802E405400AC9072043084358
:101B3C00F0BD002C07D01D43F2D08020DB008004C8
:101B4C000343FF26DAE72B4303D00523DB08FF2CE6
:101B5C0003D05B025B0AE4B2E4E7002B32D08020B6
:101B6C00C00303435B025B0ADCE73200173214DB71
:101B7C0080221E2712041343BF1B1F2F0FDC144A95
:101B8C00944664442A00A5402E00A340751EAE4125
:101B9C00FA40334313430026B0E70024D5E7022272
:101BAC005242961B1A00F240202F09D00948844655
:101BBC006444A3402B435D1EAB41002613439DE7B9
:101BCC000023F7E70023ADE73400BFE780FCFFFFFD
:101BDC0082FCFFFFA2FCFFFF8446081C6146FFE766
:101BEC001FB500F0B7F8002801D40021C8421FBD72
:101BFC0010B500F049F84042013010BD10B500F0AE
:101C0C00A9F8002801DB002010BD012010BDC04642
:101C1C0010B500F09FF8002801DD002010BD012058
:101C2C0010BDC04610B500F055F8002801DC0020AE
:101C3C0010BD012010BDC04610B500F04BF80028B7
:101C4C0001DA002010BD012010BDC0461C2101236B
:101C5C001B04984201D3000C10391B0A984201D383
:101C6C00000A08391B09984201D30009043902A261
:101C7C00105C40187047C0460403020201010101C8
:101C8C00000000000000000070B5420045024E024A
:101C9C004C00C30F6D0A120E760A240EC90F0120D8
:101CAC00FF2A06D0FF2C03D0A24201D1B54206D0A8
:101CBC0070BD002DFCD1FF2CFAD1002EF8D18B4237
:101CCC0006D00120002AF3D12800451EA841EFE7D9
:101CDC000020EDE7F0B5420045024C02C30F48006E
:101CEC006D0A120E640A000EC90FFF2A1ED0FF28BF
:101CFC0021D0002A0AD16E426E41F6B200280FD1D3
:101D0C00002C0DD10020002D09D005E0002801D1B8
:101D1C00002C01D08B4211D0012158420843F0BD58
:101D2C00002EF7D0012001390843F8E7002DDED052
:101D3C0002204042F3E7002CDBD0F9E78242EBDCD7
:101D4C0004DBA542E8D80020A542E8D20121581EA8
:101D5C000843E4E7F0B542004D024C004602760A17
:101D6C00120EC30F6D0A240EC90FFF2A16D0FF2CBA
:101D7C0018D0002A0AD170427041C0B2002C15D084
:101D8C00002805D0012001390843F0BD002C13D0E8
:101D9C00994214D001205B421843F6E70220002E32
:101DAC00F3D1E4E70220002DEFD1E2E7002DE7D1DB
:101DBC000020002EE9D0EDE7002DE9D1EAE7A242A0
:101DCC0006DCDFDBAE4203D80020AE42DAD3DCE720
:101DDC00012049420843D8E770B50500FA200D4BA5
:101DEC0080001978FEF79CF90B4B01001868FEF780
:101DFC0097F900F079F804000120002C09D1032D8B
:101E0C0007D802382200290000F03EF82000034BCE
:101E1C001D6070BD000000200800002004000020A0
:101E2C001023064A10B5116800200B431360FFF70E
:101E3C00D3FF01F091FD002010BDC04600200240F0
:101E4C00034A044B11681B785B1813607047C0463B
:101E5C009800002000000020014B18687047C04615
:101E6C009800002070B50400FFF7F6FF0500631C16
:101E7C0002D0044B1B78E418FFF7EEFF401B8442A2
:101E8C00FAD870BD0000002070B58901002812DB63
:101E9C008308134A03249B009B18FF222040A04078
:101EAC001400C025844011408140AD005E59A6430A
:101EBC003143595170BD03240F23C0B2034020405D
:101ECC00A040FC342500214085408140083B054A58
:101EDC009B089B009B18DA69AA431143D961E9E777
:101EEC0000E100E000ED00E0094A431E01209342AE
:101EFC000DD8C021074A08485360036A09061B0223
:101F0C001B0A0B4303620020072390601360704789
:101F1C00FFFFFF0010E000E000ED00E0F0B5564AD6
:101F2C000B688218541EA24189B00393002304321B
:101F3C000592039ADA4001D109B0F0BD01229A4012
:101F4C0094466446039A2240029200D192E04A6879
:101F5C0001921022019E9643022E0DD107240F27C9
:101F6C001C40A400A740DA0892008218156ABD43F1
:101F7C000F69A7403D431562032214005D00AC407D
:101F8C00E4430768013E27400497019F3A40AA406A
:101F9C00049F3A430260012E0ED8CA688668AA4094
:101FAC00264032438260624646689643019AD206C6
:101FBC00D20F9A4032434260C26814408A68AA40E9
:101FCC001443019AC460D20054D501262B4A1D003B
:101FDC0094693443946192699C0832400792079A41
:101FEC00274AA400A418A268944603221540AD0009
:101FFC000C32AA40674697439022D20594460022A1
:10200C0060450DD01F4A94463200604508D01E4EE4
:10201C009218B04204D01D4E0132B04200D0059A45
:10202C00AA403A43A2601A4A029C1668029D019F7C
:10203C00E4433543FF0301D4350025401560566851
:10204C00029D019F3543BF0301D4350025405560E7
:10205C009668029D019F3543FF0201D4350025404F
:10206C009560D568029E019F2E43BF0201D4254086
:10207C002E00D66001335CE700F0FFB70010024081
:10208C00000001400004004800080048000C004813
:10209C0000040140002A01D0816170478162FCE795
:1020AC0003689A69920701D500229A620122996904
:1020BC00114202D199690A439A61704770B5049E26
:1020CC0089053343890D194380230468DB00700DA7
:1020DC001840044B65681204184385431143294387
:1020EC00616070BDFF63FF03F8B504000E001700BC
:1020FC001D002268936933409B1B59424B41BB42E4
:10210C0001D0002017E06B1CF4D0FFF7A5FE069B56
:10211C00C01A854201D3002DEBD12022636C012023
:10212C0013436364230041331A70220000234232AC
:10213C00403413702370F8BDF8B503680400986937
:10214C0010230E00170018402025002818D1F8BDC8
:10215C00721C16D0FFF780FEC01B864201D3002EE6
:10216C000ED12022636C13436364230041331A7035
:10217C002200002342324034137001202370E6E722
:10218C0023689A692A42E3D010222000DA61DD61CB
:10219C00FFF786FF2268064953680B4053600423FF
:1021AC00626C13436364230041331D70E0E7C04647
:1021BC0000E800FEF8B504000D00160002272368A5
:1021CC009B693B4201D00020F8BD32002900200061
:1021DC00FFF7B2FF002815D16B1CF0D0FFF73CFEC7
:1021EC00801B854201D3002DE9D12022636C13435F
:1021FC006364230041331A702200002342324034BE
:10220C00137023700120DFE7F8B504000D001600F1
:10221C00202723689B693B4201D00020F8BD320087
:10222C0029002000FFF788FF002813D1FFF714FEC8
:10223C00801B854201D3002DEBD12022636C13430C
:10224C006364230041331A7022000023423240346D
:10225C00137023700120E1E7F8B504000D0017009E
:10226C00042623689B69334211D13A0029002000CF
:10227C00FFF762FF00281AD1202123689A690A42CD
:10228C0017D09A69324204D0228D002A01D0002046
:10229C00F8BD2021D9615A680E4802405A602200CC
:1022AC000023413263641170403453702370012059
:1022BC00EEE7FFF7D1FDC01B854201D3002DD0D135
:1022CC002022636C13436364230041331A7040343F
:1022DC000023EBE700E800FE70B504000120002CA1
:1022EC003FD0250041352B78DBB2002B05D12200E5
:1022FC0040321370200001F057F9242301212B7078
:10230C002368E0681A68A6688A431A6061681A4AEA
:10231C000A401A619968194A11409960012821D123
:10232C00802109023143996058681549014359606D
:10233C00D96800200A40DA60616922690A43A16900
:10234C0009020A43DA60216AE2690A431A6001222F
:10235C0019680A431A60202360642B70206342348E
:10236C00207070BD84210902314399600228DBD1B1
:10237C00802109015960D7E7FFFFFFF0FF7FFFFFC6
:10238C0000800002F0B5050087B00391049205931C
:10239C0041352B7804000220202B14D1230040332C
:1023AC001A78012A0FD001261E70FFF755FD8021E7
:1023BC00070000901923320009022000FFF794FE59
:1023CC00002802D0012007B0F0BD21232B7025007E
:1023DC00113B42352B70049B606463626B469B8A95
:1023EC0060636385628D304BFF2A21D9FF222285E1
:1023FC00009380235B0403992000FFF75FFEFF2608
:10240C00638D3A000C992000002B19D1FFF7FCFECC
:10241C000028D7D120212368244ED9615A68324034
:10242C005A60230040344133197028702070CAE779
:10243C00628D92B2228500938023D2B29B04DAE79C
:10244C00FFF7B8FE0028BDD1636A22681978013302
:10245C0091626362638D228D013B9BB26385013A6D
:10246C00638D92B22285002BCAD0002AC8D1009766
:10247C000C9B80212000FFF737FE0028A2D1638D32
:10248C00FF2B09D98023FF2226855B04009003993A
:10249C002000FFF713FEB3E78023628D9B0492B2FA
:1024AC002285D2B20090F2E70020008000E800FE06
:1024BC00F0B5050087B003910492059341352B7854
:1024CC0004000220202B14D1230040331A78012A57
:1024DC000FD001261E70FFF7BFFC80210700009073
:1024EC001923320009022000FFF7FEFD002802D05C
:1024FC00012007B0F0BD22232B702500123B423582
:10250C002B70049B606463626B469B8A606363857B
:10251C00628D314BFF2A21D9FF2222850093802323
:10252C005B0403992000FFF7C9FDFF26638D3A0079
:10253C000C992000002B19D1FFF766FE0028D7D18B
:10254C0020212368254ED9615A6832405A602300F5
:10255C0040344133197028702070CAE7628D92B2F2
:10256C00228500938023D2B29B04DAE7FFF774FE36
:10257C000028BDD12368626A5B6A1370636A228D7E
:10258C0001336362638D013A013B9BB26385638DBA
:10259C0092B22285002BC9D0002AC7D100970C9B80
:1025AC0080212000FFF7A0FD0028A1D1638DFF2B17
:1025BC0009D98023FF2226855B0400900399200013
:1025CC00FFF77CFDB2E78023628D9B0492B22285DB
:1025DC00D2B20090F2E7C0460024008000E800FE72
:1025EC00F0B51D00002389B007930300413305911A
:1025FC00049202931B7804000220202B56D12368EE
:10260C009A6980231B02134050D1210040310A7873
:10261C00012A4BD001220A702421029803920170E6
:10262C006364059BE1689B0522689B0D01291FD102
:10263C0033490B435360FFF70FFC060022680399E4
:10264C00936992695B0912090B400A40134312D03B
:10265C00102723689A6900963A402B00002A27D14C
:10266C0020212000FFF740FD002817D001201DE09D
:10267C00A0218901DDE76B1CE0D0FFF7EDFB801B8F
:10268C00854201D3002DD9D12023029A40341370F6
:10269C0062681343636000232370E7E720232268FA
:1026AC00D3612200403441321370207009B0F0BD68
:1026BC00002220212000FFF717FD021ED6D123682F
:1026CC000498DF612027DF61079981420ED18021B8
:1026DC005868C90101435960200000962B0039004D
:1026EC00FFF702FD0028C1D12368DF61079B049A24
:1026FC0001330793079B9A4200D992E7C4E7C0467F
:10270C0000200002F0B50400413422780300D2B25C
:10271C000220202A18D11D0040352E78012E13D00E
:10272C001B68223020701E68233886431E601E688A
:10273C00064F3E401E601E683143196019680843FD
:10274C001860002022702870F0BDC046FFEFFFFF1C
:10275C00F0B5050041352A780300D2B20220202AB8
:10276C0017D11C0040342678012E12D01B68223061
:10277C0028701E68233886431E601E68054F0902A8
:10278C003E403143196019680843186000202A70D4
:10279C002070F0BDFFF0FFFFF0B5040085B00028FD
:1027AC0002D1012005B0F0BD0368DB0733D42368E8
:1027BC009B0700D587E023681B0700D5C8E023687A
:1027CC005B0700D5EBE02368DB061AD56269BC4DCC
:1027DC000423012A00D057E1696B02260B436B637B
:1027EC006B6B1A436A63FFF737FB07006B6B334263
:1027FC0000D142E1F8216A6BA3698A43DB001343E1
:10280C006B6323689B0600D566E1626A002A00D0E0
:10281C00A3E10020C6E70C21A94D6A680A40042AEE
:10282C000BD06B680B40082B0ED1C0226B68520288
:10283C00134080225202934206D12B689B03B6D5DB
:10284C006368002BB3D1ACE76368012B13D18023F1
:10285C002A685B0213432B60FFF7FEFA8026070001
:10286C00B6022B683342A2D1FFF7F6FAC01B6428DC
:10287C00F7D9032096E7002B15D12B68914A8026B7
:10288C0013402B602B68904AB60213402B60FFF765
:10289C00E3FA07002B68334289D0FFF7DDFAC01B3F
:1028AC006428F7D9E5E7052B05D180232A68DB02DC
:1028BC0013432B60CBE72B68824A13402B602B68A9
:1028CC00814A1340C7E70C227D4D6B6813420BD035
:1028DC006B681340082B16D1C0226B685202134050
:1028EC008022120293420ED12B689B0703D5E3681A
:1028FC00012B00D055E7F8212A6823698A43DB00B5
:10290C0013432B6057E7E2680123002A0FD02A6893
:10291C00022613432B60FFF79FFA07002B68334204
:10292C00E9D1FFF799FAC01B0228F7D9A1E72A6869
:10293C0002269A432A60FFF78FFA07002B6833426E
:10294C0000D138E7FFF788FAC01B0228F6D990E7C8
:10295C00E26901235A4D002A10D06A6A02261343F9
:10296C006B62FFF779FA07006B6A334200D026E7F7
:10297C00FFF772FAC01B0228F6D97AE76A6A0226B8
:10298C009A436A62FFF768FA07006B6A334200D118
:10299C0015E7FFF761FAC01B0228F6D969E7802218
:1029AC000021474D5205EB690091134208D1EB69A8
:1029BC001343EB61EB6913400393039B01230093D7
:1029CC008027424E7F0033683B4206D0A368012B20
:1029DC0013D12A6A13432B6230E033683B433360D4
:1029EC00FFF73AFA019033683B42EFD1FFF734FA24
:1029FC00019BC01A6428F6D93BE70122002B14D1A5
:102A0C002B6A022793432B622B6A033293432B626C
:102A1C00FFF722FA06002B6A3B4225D0FFF71CFA7F
:102A2C002B4B801B9842F6D923E7052B0BD1296A37
:102A3C00013B0B432B622B6A1A432A62FFF70CFAF9
:102A4C00022706000DE02B6A934304222B622B6AAB
:102A5C009343C0E7FFF700FA1D4B801B984200D947
:102A6C0007E72B6A3B42F5D0009B012B00D0AAE66E
:102A7C00EB69184A1340EB61A5E6FFF7EDF9C01BB3
:102A8C00022800D8B2E6F4E6053203D16A6B9A4309
:102A9C006A63AFE66A6B0226134301226B636B6BAE
:102AAC0093436B63FFF7D8F907006B6B334200D18C
:102ABC00A7E6FFF7D1F9C01B0228F6D9D9E6C04624
:102ACC0000100240FFFFFEFFFFFFFBFF0070004005
:102ADC0088130000FFFFFFEF0C21534D6A680A407A
:102AEC008A4209D06B680B40082B0ED1C0226B6850
:102AFC0052021340934208D16B6BDB0300D484E683
:102B0C00236A012B00D04CE67FE6236A002B11D000
:102B1C0080266B6B760233436B63FFF79DF90700DE
:102B2C006B6B334200D070E6FFF796F9C01B02289E
:102B3C00F6D99EE66B6B3D4A802613406B63FFF71C
:102B4C008BF9070076026B6B334200D15DE6FFF721
:102B5C0083F9C01B0228F6D98BE60C20324B59683E
:102B6C001D000140082944D01B6831490B402B60E3
:102B7C00022A2FD1FFF770F980260700B6042B68C4
:102B8C00334221D10F22EB6A9343226B1343EB6246
:102B9C00A16AE36A6A680B43264980240A401343FE
:102BAC006B6080232A685B0413432B60FFF754F996
:102BBC000600A4042B68234200D02AE6FFF74CF948
:102BCC00801B0228F6D954E6FFF746F9C01B0228F1
:102BDC00D5D94EE6FFF740F980240600A4042B68F3
:102BEC00234200D115E6FFF737F9801B0228F6D9EE
:102BFC003FE6012A00D1D4E5C0225868A16A5202EE
:102C0C00DB6A02408A4200D0CBE50F221340226BD4
:102C1C00934200D0C5E5F0239B031840E36AC01A29
:102C2C00431E9841C0B2BDE500100240FFFFFEFFFD
:102C3C00FFFFFFFEFF7FC2FF70B5194C88B010225A
:102C4C002100684600F062FF210004AD1022103113
:102C5C00280000F05BFF0C22124E73681A40082A01
:102C6C0004D00C2A1AD1104808B070BD0F206A4647
:102C7C00990C0140545CF26A0240A95CC02280208D
:102C8C00520213404002834201D1084802E09342B1
:102C9C00FBD10548FDF744FA6043E5E70348E3E759
:102CAC008443000800100240006CDC0200127A0021
:102CBC00F7B505000F00002801D10120FEBD01224F
:102CCC003B4C236813408B421CD329688B0722D4BE
:102CDC00CB072FD4012322681A40974259D32B6873
:102CEC00344C5B075DD4FFF7A7FF6368324A1B06C1
:102CFC001B0FD35CD840314B18600020FFF76CF8E9
:102D0C000020DBE7236893430B43236023681340C5
:102D1C009942D2D1D9E7274A4B0704D5E023506812
:102D2C00DB0003435360F02053688343A8680343DC
:102D3C005360CDE76A681F4E012A1AD133689B0392
:102D4C00BBD5032173688B4313437360FFF784F87F
:102D5C0001900C2372681A406B689B009A42B9D0A0
:102D6C00FFF77AF8019BC01A154B9842F1D9032052
:102D7C00A4E7022A03D133689B01E2D49DE7032A1E
:102D8C0003D1736BDB03DCD497E733689B07D8D490
:102D9C0093E722689A43226022681A4200D08CE79B
:102DAC009DE76368074A1340EA68134363609AE738
:102DBC0000200240001002408B4400080800002054
:102DCC0088130000FFF8FFFF044B054A5B685B05A6
:102DDC005B0FD35C034A1068D84070470010024068
:102DEC009B44000808000020F0B5036885B005007E
:102DFC00DB0328D580220021444C5205E369009165
:102E0C00134208D1E3691343E361E369134003936D
:102E1C00039B0123009380273D4E7F0033683B4288
:102E2C0041D0C022236A920013403A4E4DD1236AFE
:102E3C001E406B681E43009B2662012B03D1E36985
:102E4C00354A1340E3612B68DA0706D503202F4976
:102E5C000A6B8243A86802430A639A0706D52B497A
:102E6C002E480A6B0240E86802430A635A0306D5EF
:102E7C0026492B480A6B0240286902430A639A06CA
:102E8C0006D5102021490A6B8243686902430A6304
:102E9C0000205B0517D540211C4A136B8B43A96995
:102EAC000B4313630FE033683B433360FEF7D4FFEF
:102EBC00019033683B42B4D1FEF7CEFF019BC01AA0
:102ECC006428F6D9032005B0F0BD69680A40934226
:102EDC00ADD08023226A206A11005B020343236277
:102EEC00236A10483140034023622162D3079ED5E8
:102EFC00FEF7B2FF07000222236A134297D1FEF7B6
:102F0C00ABFF094BC01B9842F5D9DBE70010024020
:102F1C0000700040FFFCFFFFFFFFFFEFFFFFFCFF17
:102F2C00FFFFF3FFFFFFFEFF8813000070B50400E6
:102F3C002569A26803682A436569C1692A43186830
:102F4C00654D0A43284002431A605A686348256A53
:102F5C000240E06802435A60A26998682A43604DB7
:102F6C00284002439A605F4A934213D103225E4B7E
:102F7C001B6B13405D4AD05C80231B02994200D12D
:102F8C009CE0082861D8FDF7B7F86260676077604D
:102F9C0060607A00564A934238D1C0228020524B4E
:102FAC0092021B6B40021340834200D17FE008D891
:102FBC00002B00D171E0802301201B02994244D1E7
:102FCC0020E08020800283425ED09342F3D18023A4
:102FDC001B02994240D163685808464BC01861687F
:102FEC00FDF79EF880B20300434A103B93422CD865
:102FFC000F2302009A43130000072268400F184366
:10300C00D060002000232366636670BD3B4A934268
:10301C000CD1C0228020344B12031B6BC002134016
:10302C00834244D0C4D980200003CCE7344A934275
:10303C0033D0344A934230D0334A93422DD0334A62
:10304C0093422AD0324A934227D00120DAE7FFF785
:10305C00BBFE63685B0802E0636858082D4BC01820
:10306C006168FDF75DF880B20300234A103B934280
:10307C00EBD82368D860C4E7FFF7DEFDE9E76368A7
:10308C00580880231B02EAE780231B029942F6D1E1
:10309C006368580880235B02A0E780231B029942D7
:1030AC00D5D1FFF791FE636840005B0896E780235B
:1030BC001B029942E0D1FFF7BFFDF4E70828C4D802
:1030CC00FDF724F8EFFFC3FF89FFC3FFF9FFC3FF30
:1030DC00C3FFC3FFE6FFC046F369FFEFFFCFFFFF5F
:1030EC00FFF4FFFF00380140001002406444000868
:1030FC00004400400024F400EFFF000000480040B2
:10310C00004C0040005000400014014000180140E9
:10311C00001C014000127A00436A30B5DA0706D56C
:10312C000168284C4A682240846A22434A609A0704
:10313C0006D50168244C4A682240C46A22434A607E
:10314C005A0706D50168214C4A682240046B224379
:10315C004A601A0706D501681D4C4A682240446B28
:10316C0022434A60DA0606D501681A4C8A68224066
:10317C00846B22438A609A0606D50168164C8A68CD
:10318C002240C46B22438A605A0610D50168134D45
:10319C004A68046C2A4022434A60802252039442BB
:1031AC0005D14A680E4C2240446C22434A601B06EF
:1031BC0006D502680B4953680B40816C0B43536076
:1031CC0030BDC046FFFFFDFFFFFFFEFFFFFFFBFF13
:1031DC00FF7FFFFFFFEFFFFFFFDFFFFFFFFFEFFFB3
:1031EC00FFFF9FFFFFFFF7FFF7B5802704000E00DE
:1031FC00150001933F012268D36933409B1B594250
:10320C004B41AB4201D000201CE0089B0133F3D0B2
:10321C00FEF722FE019B089AC01A2368824201D352
:10322C00002A10D11A6813490A401A609A68A3310F
:10323C00FF318A439A6020236367A367002303202E
:10324C0070342370FEBD04211A680A42D3D0DA69A7
:10325C003A42D0D01F621A6806490A401A609A682E
:10326C00A331FF318A439A6020236367A367E36726
:10327C00E4E7C0465FFEFFFFF0B587B00593436FF0
:10328C0004000D0017000220202B49D10138002921
:10329C0046D0002A44D08023A2685B019A4204D114
:1032AC002369002B01D101423AD1230070331A78E3
:1032BC000220012A34D0012200261A702123E6674D
:1032CC006367FEF7C9FD230050331F80023303935D
:1032DC001F808023A26804905B019A4204D1236969
:1032EC00B34201D12E001D00230052331A88059BD6
:1032FC0092B20093049B002A0AD140212000FFF7D0
:10330C0073FF00280BD1202370346360207007E01A
:10331C00002280212000FFF767FF002802D0032045
:10332C0007B0F0BD2268002D0BD133880236DB05C7
:10333C00DB0D1385039B039A1B88013B9BB2138007
:10334C00D2E72B7801351385F4E7000073B500261E
:10335C000400C667FEF780FD236805001B681B0789
:10336C0015D423681B685B070AD580210E4B0022FD
:10337C000093C9032B002000FFF736FF002811D162
:10338C00202300206367A367703420700BE080213A
:10339C00054B32000093890303002000FFF724FF44
:1033AC000028DED0032076BDFFFFFF0110B5041E00
:1033BC0001D1012010BD436F002B04D102007032EB
:1033CC00137000F021FB242301212268636713682A
:1033DC0020008B431360FFF7A9FD0128E9D0636A35
:1033EC00002B02D02000FFF797FE236807495A688C
:1033FC0020000A402A215A609A688A439A60012266
:10340C0019680A431A60FFF7A1FFD3E7FFB7FFFF64
:10341C002C23F0B585B002AC2370FA230E000627DE
:10342C009B00050067702200009388210223300066
:10343C00FEF7A8FFFA239B002200009388213B0093
:10344C003000FFF735F8E37820791B021843FEF7BC
:10345C00F7FA0022114BFDF75DFD0022104BFDF732
:10346C0025FAFEF72FFB2378061C60781B02184305
:10347C00FEF7E6FA00220B4BFDF74CFD0022084B41
:10348C00FDF714FA0022084BFDF7C4FFFEF71AFBF8
:10349C00286028006E6005B0F0BDC04600005940A1
:1034AC00E0FFEF4000E065400080464030B58BB057
:1034BC001422002105A800F032FB8020204B0003D1
:1034CC0059699025014359615A69ED0502408020E4
:1034DC000192019A5969C003014359615A69002448
:1034EC00024080200292029A59698002014359617C
:1034FC0080215A69C90202400392039A5A69280032
:10350C000A435A615B6900220B4004932021049BFF
:10351C00FEF7C0FD80239B0105930A4B05A90A48C1
:10352C0006930794FEF7FAFC202305A905932800BF
:10353C001F3B069307940894FEF7F0FC0BB030BDCC
:10354C0000100240000021100008004810B5134B79
:10355C00134C01222360134B200063600023E260B4
:10356C00A36023616361A361E3612362FEF7B4FE90
:10357C00002801D000F0EEF900212000FFF7C2F87E
:10358C00002801D000F0E6F900212000FFF7E0F858
:10359C00002801D000F0DEF910BDC04600540040F8
:1035AC009C0000200E09002010B5040088B01422E5
:1035BC00002103A800F0B3FA134B22689A4220D1E1
:1035CC008021124CC902626911480A436261636925
:1035DC0003220B400193019BC0239B0003931223F6
:1035EC0003A90493113B059306920793FEF796FCEF
:1035FC008021E26989030A43E261E3690B4002938B
:10360C00029B08B010BDC0460054004000100240A0
:10361C00000400480C230A78F0B513430B70802388
:10362C00040087B003AD2B70543B13430E004D4F79
:10363C006B70052264237C21FEF7D2FF3220FEF74B
:10364C0011FC2A00009702237C212000FEF79AFE31
:10365C003220FEF707FC2A00009702237C21200071
:10366C00FEF790FE0520FEF7FDFB00972A000223D3
:10367C007C212000FEF786FE042373700C236B70F4
:10368C00FA239B0000932A0002237C212000FEF7E2
:10369C0079FE01236B70FA239B002A0000937C2196
:1036AC0002232000FEF76EFE0220FEF7DBFB062352
:1036BC006B70FA2302279B00B7702A0000937C21C1
:1036CC003B002000FEF75EFE002304AD2B706B70F8
:1036DC00FA239B0000932A003B00C4212000FEF734
:1036EC0051FE08232B70FA23FF269B006E702A00D4
:1036FC000093C4213B002000FEF744FE01232B70F5
:10370C0020236B70FA239B0000932A003B00C421FA
:10371C002000FEF737FE042305AD2B70FA239B0027
:10372C006E702A000093C4213B002000FEF72AFE95
:10373C0003232B70FA239B006E702A000093C42184
:10374C003B002000FEF71EFEFA239B002F706E70CC
:10375C002A000093C4213B002000FEF713FE07B0A3
:10376C00F0BDC046881300007FB54023FA26040044
:10377C0003AD2B70B6000134631E1B78002B00D1F7
:10378C007FBD6B702A00009602237C210148FEF756
:10379C00F9FDF0E79C0000201FB58023002A00D023
:1037AC00C0231943802303AA1370FA239B00517082
:1037BC0000937C210223FEF7E5FD05B000BD00005F
:1037CC001FB5802303AA13707F3B5370FA239B0011
:1037DC0000937C2102230448FEF7D4FD0220FEF75F
:1037EC0041FB05B000BDC0469C00002070B5102602
:1037FC0098B0342200210BA800F091F9320000217E
:10380C00684600F08CF91C22002104A800F087F90E
:10381C0080231B021593A023022401259B030BA8D4
:10382C000B94149416930E950F961795FEF7B4FF00
:10383C000723019400242900684600930294039402
:10384C00FFF736FA222304A8049307940994FFF790
:10385C00CBFA18B070BD0000F7B5FEF7E1FAFFF730
:10386C00C5FFFFF723FEFFF771FE00F0B1F8304CF7
:10387C0030492000FFF7CEFE2F4D21006846FFF7A0
:10388C00C7FD6E462B0006CE06C32E68301CFCF717
:10389C00D3FC0700FCF7C4FF011C301CFCF704FE32
:1038AC002649FCF7E1FCFCF7C7FC254E03003A0067
:1038BC002449300000F03CF9FA2382B29B0031001D
:1038CC002148FFF7D9FC6D68281CFCF7B5FC0700F4
:1038DC00FCF7A6FF011C281CFCF7E6FD1749FCF7BA
:1038EC00C3FCFCF7A9FC194D03003A001849280049
:1038FC0000F01EF9FA2382B29B0029001248FFF750
:10390C00BBFCFFF75DFF002220001100FFF744FF16
:10391C003000FFF729FF012200212000FFF73CFFB8
:10392C002800FFF721FFFA20C000FEF79BFAA3E75F
:10393C009C000020E8010020EC0200200000204147
:10394C00E800002068440008F4020020EB0100208D
:10395C00794400087047000001200A4B82B0996935
:10396C000143996180219A69490502400092009AAD
:10397C00DA690A43DA61DB690B400193019B02B0FF
:10398C007047C046001002407047FEE77047704712
:10399C0010B5FEF755FA10BD0A4B10B519680200A8
:1039AC00002901D1084919606946186882188A42B1
:1039BC0006D900F081F80C2303600120404210BDB1
:1039CC001A60FCE78C000020780300207047000090
:1039DC000B480C4B10B50360E1235B0243600C22D7
:1039EC00002342618360C36003618361C36103622E
:1039FC004362FFF7DBFC002801D0FFF7ABFF10BDE3
:103A0C00F40200200044004010B5040088B01422D9
:103A1C00002103A800F083F8104B22689A421BD1B6
:103A2C0080220F4B9202D96990201143D961D96938
:103A3C00C0051140019101995969114359615B69A4
:103A4C0003A91A400292029B0C2303930A3B049392
:103A5C00013B0793FEF762FA08B010BD004400402A
:103A6C00001002400D4885460D480E490E4A0023B1
:103A7C0002E0D458C4500433C4188C42F9D30B4A16
:103A8C000B4C002301E013600432A242FBD3FFF77E
:103A9C009DFF00F017F8FFF7DFFEFEE70080002027
:103AAC000000002070000020E0440008700000209E
:103ABC0078030020FEE70000014B18687047C046F1
:103ACC000C00002070B500260C4D0D4C641BA4108E
:103ADC00A64209D1002600F043FC0A4D0A4C641B97
:103AEC00A410A64205D170BDB300EB58984701361F
:103AFC00EEE7B300EB5898470136F2E7D8440008DC
:103B0C00D8440008D8440008DC440008002310B551
:103B1C009A4200D110BDCC5CC4540133F8E70300C9
:103B2C008218934200D1704719700133F9E70000F5
:103B3C000EB410B59DB002A9029008610B48822406
:103B4C0088604861012040421FABC881084804CB03
:103B5C00A400006801938C8100F06EF80023029A97
:103B6C0013701DB010BC08BC03B01847FFFFFF7FDB
:103B7C000C000020F0B58E6885B007000C00039295
:103B8C0001939E4239D890238A89DB001A4234D0A3
:103B9C000325096923685B1A0293636902985D43E4
:103BAC00EB0F5D19019B6D1001331B18AB4200D953
:103BBC001D00530532D52900380000F031FB061EDC
:103BCC0009D10C233B6040230120A28940421343BE
:103BDC00A38105B0F0BD029A2169FFF797FFA38975
:103BEC00144A1A4080231343A381029B2661F618C2
:103BFC0026606561019EED1AA560019BB34200D25F
:103C0C001E0032000399206800F0ADFAA368002072
:103C1C009B1BA36023689E192660DAE72A003800F4
:103C2C0000F05CFB061EE0D12169380000F0AEFA12
:103C3C00C7E7C0467FFBFFFFF0B59FB0029005932E
:103C4C008B890F0016001B0611D50B69002B0ED1AA
:103C5C00402100F0E5FA38603861002805D10C23CA
:103C6C00029A013813601FB0F0BD40237B61002322
:103C7C0006AD6B6120336B761033AB763400237852
:103C8C00002B47D1A31B04930DD0A31B320039008A
:103C9C000298FFF76FFF431C00D1B5E06A69049BE3
:103CAC00944663446B612378002B00D1ACE0012275
:103CBC00002352426A6002A95432521801342B601C
:103CCC00EB60AB601370AB65584E05222178300069
:103CDC0000F03EFA621C002820D12968CB0604D5DE
:103CEC00532302AE20309B1918700B0704D55323B5
:103CFC002B2002AE9B19187023782A2B16D000208B
:103D0C000A21099B2278303A092A55D9002815D066
:103D1C00099313E0252BB5D00134B0E70123801BA8
:103D2C008340296814000B432B60CDE7059B181DBD
:103D3C001B680590002B39DB0993140023782E2B7C
:103D4C000BD16378621C2A2B3ED1059B02341A1DC1
:103D5C001B680592002B34DB0793354E2178032228
:103D6C00300000F0F5F9002806D04023801B83407A
:103D7C002A68013413432B60217806222D48661CD7
:103D8C00297600F0E5F9002846D02B4B002B2FD1DB
:103D9C002968059B0722C90528D59B18934308332E
:103DAC0005936B69039A9B186B6167E75B42EB6049
:103DBC0002230B432B60C0E74B4301349B180120BB
:103DCC00A0E701235B42C7E7002314000A201A0076
:103DDC006B6021783039092903D9002BBDD00792AB
:103DEC00BBE74243013452180123F2E70733D5E70E
:103DFC0005AB00933A00114B2900029800E000BF7C
:103E0C000390039B0133CCD1BB890B985B0600D488
:103E1C0029E70120404226E705AB00933A00074B07
:103E2C002900029800F07AF8EAE7C046A34400089B
:103E3C00A9440008AD44000800000000813B0008C4
:103E4C00F7B5150001938A680B6900900C0093423A
:103E5C0000DA130022002B6043321278002A01D0C2
:103E6C0001332B6023689B0602D52B6802332B6031
:103E7C00062723681F4027D0230043331B785A1E84
:103E8C0093412268920630D4220001994332009863
:103E9C00089EB047431C25D0062320682A68E16899
:103EAC0003400025042B03D18D1AEB43DB171D4077
:103EBC00A3682269934201DD9B1AED180027BD42CD
:103ECC0020D1002010E00137E3682A689B1A9F423A
:103EDC00D2DA22000123193201990098089EB047CA
:103EEC00431CF0D101204042FEBD3020E11843318B
:103EFC00087021005A1C45310978A218433202334C
:103F0C001170C1E7220001231A3201990098089E12
:103F1C00B047431CE6D00137D1E70000F0B58BB0B9
:103F2C0006920A0043320793059004920A7E0C0015
:103F3C00109B6E2A00D18FE017D8632A2CD008D89A
:103F4C00002A00D199E0582A54D02600423632700B
:103F5C0029E0642A01D0692AF7D121681A68080679
:103F6C0023D5111D1960156825E0732A00D188E04E
:103F7C0008D86F2A29D0702AE7D1202209680A4371
:103F8C00226003E0752A20D0782ADED12200782125
:103F9C00453211706C4A30E00E001A684236111D21
:103FAC00196013683370012379E04906D9D5111DC6
:103FBC0019600023D55E002D03DA2D23049A6D427F
:103FCC001370624B0A2703932FE0206819680506CB
:103FDC0003D5081D18600D6805E04006F9D50D687D
:103FEC00081D1860ADB2594B082703936F2A18D0DF
:103FFC000A2716E045310A70544A03921A68216860
:10400C00101D18601568080622D5CB0702D5202391
:10401C00194321601027002D03D1202322689A43D5
:10402C0022602300002243331A706368A360002BC4
:10403C005CDB0422216891432160002D58D1049E41
:10404C00002B64D02600039B42361B7833705EE055
:10405C004806DAD5ADB2D8E709681A68080605D55E
:10406C00111D1960136862691A6006E04906F7D5DC
:10407C00111D19601368A28A1A800023049E236103
:10408C0054E01A68111D196016680021626830002E
:10409C0000F05EF8002801D0801B6060636823612B
:1040AC000023049A137041E02369320006990598A5
:1040BC00079DA847431C43D0236800259B070FD4BA
:1040CC00099BE06898423DDA18003BE0220001238E
:1040DC00193206990598079EB047431C30D001351C
:1040EC00E368099A9B1A9D42F0DBE9E7002DA9D001
:1040FC00049E28003900FCF799F8039B013E5B5C99
:10410C00280033703900FCF70BF8051EF1D1082F8D
:10411C0009D12368DB0706D563682269934202DC68
:10412C003023013E3370049B9B1B2361079B09AA20
:10413C0000932100069B0598FFF782FE431CB3D128
:10414C00012040420BB0F0BDC5440008B444000847
:10415C00C9B28218904201D10020704703788B427B
:10416C00FBD00130F6E710B5884202D98B18984283
:10417C0008D300239A4207D0CC5CC4540133F9E72E
:10418C008B5C8354013AFBD210BD000070B5050066
:10419C00002910D00C1F2368002B00DAE41828002B
:1041AC0000F0D4F81D4A1368002B05D1636014602D
:1041BC00280000F0CCF870BDA34209D92168601822
:1041CC008342F3D118685B6841182160EEE7130055
:1041DC005A68002A01D0A242F9D919685818A0428D
:1041EC000BD120680918581819608242E0D1106868
:1041FC005268411819605A60DAE7A04202D90C23C0
:10420C002B60D5E721686018824203D11068526890
:10421C004118216062605C60CAE7C04690000020D3
:10422C00032370B5CD1C9D43083506000C2D1ED202
:10423C000C25A9421DD8300000F088F8254A1468D6
:10424C002100002919D1244C2368002B03D1300004
:10425C0000F06AF820602900300000F065F8431C7B
:10426C002CD10C233000336000F071F803E0002DEA
:10427C00DFDA0C233360002070BD0B685B1B1AD493
:10428C000B2B03D90B60CC18256003E08C420ED1AC
:10429C0063681360300000F05AF8200007220B30DE
:1042AC00231D9043C31AE7D05A42E250E4E74B680F
:1042BC0063600C00EEE70C004968C2E70323C41CE2
:1042CC009C43A042E0D0211A300000F02DF8431C92
:1042DC00DAD1C6E79000002094000020F8B5070062
:1042EC000D001600002905D11100FFF799FF0400FD
:1042FC002000F8BD002A03D1FFF748FF3400F7E790
:10430C0000F026F82C008642F2D931003800FFF775
:10431C0087FF041EECD029003200FFF7F7FB2900C1
:10432C003800FFF733FFE3E7002370B5064C0500B8
:10433C0008002360FFF730FB431C03D12368002BDC
:10434C0000D02B6070BDC0467403002070477047CE
:10435C000B1F1B68181F002B01DA0B58C018704775
:10436C00F8B5C046F8BC08BC9E467047F8B5C046C8
:08437C00F8BC08BC9E46704726
:1043840002030405060708090A0B0C0D0E0F101092
:104394000102030405060708090A0B0C0D0E0F1091
:1043A400A0030008F0020008F0020008EE02000872
:1043B400920300089203000888030008EE02000834
:1043C400920300088803000892030008EE02000824
:1043D40098030008980300089803000828040008BC
:1043E400B00A0008920A00084C0A00086A0900088A
:1043F4004C0A0008840A00084C0A00086A090008EC
:10440400920A0008920A0008840A00086A0900084F
:10441400620900086209000862090008C80C000863
:1044240010110008D00F0008D00F0008CC0F0008AE
:10443400E8100008E8100008DA100008CC0F0008A3
:10444400E8100008DA100008E8100008CC0F000893
:10445400F0100008F0100008F0100008F412000832
:104464000004080254656D703A20256C642E256C96
:10447400642043200048756D203A20256C642E2565
:104484006C642025252000000000000000000001CD
:1044940002030406070809000000000102030423C4
:1044A4002D302B2000686C4C00656667454647003C
:1044B4003031323334353637383941424344454656
:1044C40000303132333435363738396162636465EC
:0444D400660000007E
:0444D800E5000008F3
:0444DC00BD00000817
:1044E000010000000400000000127A00100000200B
:1044F00000000000000000000000000000000000BC
:1045000000000000000000000000000000000000AB
:10451000000000000000000000000000000000009B
:10452000000000000000000000000000000000008B
:10453000000000000000000000000000000000007B
:10454000000000000000000000000000000000006B
:0400000508003A7144
:00000001FF
