:020000040800F2
:1000000000800020CD1A0008251A0008271A0008D1
:1000100000000000000000000000000000000000E0
:10002000000000000000000000000000291A000885
:1000300000000000000000002B1A00082D1A000824
:100040001D1B00081D1B00081D1B00081D1B0008B0
:100050001D1B00081D1B00081D1B00081D1B0008A0
:100060001D1B00081D1B00081D1B00081D1B000890
:100070001D1B00081D1B00081D1B00081D1B000880
:100080001D1B00081D1B00081D1B00081D1B000870
:100090001D1B00081D1B00081D1B00081D1B000860
:1000A0001D1B00081D1B00081D1B00081D1B000850
:0C00B0001D1B00081D1B00081D1B000884
:1000BC0010B5064C2378002B07D1054B002B02D032
:1000CC00044800E000BF0123237010BD0C00002089
:1000DC00000000008C1B0008044B10B5002B03D053
:1000EC000349044800E000BF10BDC04600000000FA
:1000FC00100000208C1B000802B47146490849000E
:10010C00095C49008E4402BC7047C04603B471467A
:10011C00490840004900095E49008E4403BC704701
:10012C00002243088B4274D303098B425FD3030A2A
:10013C008B4244D3030B8B4228D3030C8B420DD33D
:10014C00FF22090212BA030C8B4202D312120902CB
:10015C0065D0030B8B4219D300E0090AC30B8B4209
:10016C0001D3CB03C01A5241830B8B4201D38B03B7
:10017C00C01A5241430B8B4201D34B03C01A52415C
:10018C00030B8B4201D30B03C01A5241C30A8B429F
:10019C0001D3CB02C01A5241830A8B4201D38B028A
:1001AC00C01A5241430A8B4201D34B02C01A52412E
:1001BC00030A8B4201D30B02C01A5241CDD2C309A0
:1001CC008B4201D3CB01C01A524183098B4201D31C
:1001DC008B01C01A524143098B4201D34B01C01A07
:1001EC00524103098B4201D30B01C01A5241C3087F
:1001FC008B4201D3CB00C01A524183088B4201D3EE
:10020C008B00C01A524143088B4201D34B00C01AD9
:10021C005241411A00D20146524110467047FFE745
:10022C0001B5002000F006F802BDC0460029F7D049
:10023C0076E770477047C04670B50500FA200D4B45
:10024C0080001978FFF76CFF0B4B01001868FFF763
:10025C0067FF00F079F804000120002C09D1032D70
:10026C0007D802382200290000F03EF82000034B8A
:10027C001D6070BD0000002008000020040000205C
:10028C001023064A10B5116800200B431360FFF7CA
:10029C00D3FF01F0A9FB002010BDC0460020024096
:1002AC00034A044B11681B785B1813607047C046F7
:1002BC002C00002000000020014B18687047C0463D
:1002CC002C00002070B50400FFF7F6FF0500631C3E
:1002DC0002D0044B1B78E418FFF7EEFF401B84425E
:1002EC00FAD870BD0000002070B58901002812DB1F
:1002FC008308134A03249B009B18FF222040A04034
:10030C001400C025844011408140AD005E59A643C5
:10031C003143595170BD03240F23C0B20340204018
:10032C00A040FC342500214085408140083B054A13
:10033C009B089B009B18DA69AA431143D961E9E732
:10034C0000E100E000ED00E0094A431E0120934269
:10035C000DD8C021074A08485360036A09061B02DE
:10036C001B0A0B4303620020072390601360704745
:10037C00FFFFFF0010E000E000ED00E0F0B5564A92
:10038C000B688218541EA24189B0039300230432D7
:10039C000592039ADA4001D109B0F0BD01229A40CE
:1003AC0094466446039A2240029200D192E04A6835
:1003BC0001921022019E9643022E0DD107240F2785
:1003CC001C40A400A740DA0892008218156ABD43AD
:1003DC000F69A7403D431562032214005D00AC4039
:1003EC00E4430768013E27400497019F3A40AA4026
:1003FC00049F3A430260012E0ED8CA688668AA4050
:10040C00264032438260624646689643019AD20681
:10041C00D20F9A4032434260C26814408A68AA40A4
:10042C001443019AC460D20054D501262B4A1D00F6
:10043C0094693443946192699C0832400792079AFC
:10044C00274AA400A418A268944603221540AD00C4
:10045C000C32AA40674697439022D205944600225C
:10046C0060450DD01F4A94463200604508D01E4EA0
:10047C009218B04204D01D4E0132B04200D0059A01
:10048C00AA403A43A2601A4A029C1668029D019F38
:10049C00E4433543FF0301D435002540156056680D
:1004AC00029D019F3543BF0301D4350025405560A3
:1004BC009668029D019F3543FF0201D4350025400B
:1004CC009560D568029E019F2E43BF0201D4254042
:1004DC002E00D66001335CE700F0FFB7001002403D
:1004EC00000001400004004800080048000C0048CF
:1004FC0000040140002A01D0816170478162FCE751
:10050C0003689A69920701D500229A6201229969BF
:10051C00114202D199690A439A61704770B5049EE1
:10052C0089053343890D194380230468DB00700D62
:10053C001840044B65681204184385431143294342
:10054C00616070BDFF63FF03F8B504000E00170077
:10055C001D002268936933409B1B59424B41BB429F
:10056C0001D0002017E06B1CF4D0FFF7A5FE069B12
:10057C00C01A854201D3002DEBD12022636C0120DF
:10058C0013436364230041331A7022000023423268
:10059C00403413702370F8BDF8B5036804009869F3
:1005AC0010230E00170018402025002818D1F8BD84
:1005BC00721C16D0FFF780FEC01B864201D3002EA2
:1005CC000ED12022636C13436364230041331A70F1
:1005DC002200002342324034137001202370E6E7DE
:1005EC0023689A692A42E3D010222000DA61DD6187
:1005FC00FFF786FF2268064953680B4053600423BB
:10060C00626C13436364230041331D70E0E7C04602
:10061C0000E800FEF8B504000D0016000227236860
:10062C009B693B4201D00020F8BD3200290020001C
:10063C00FFF7B2FF002815D16B1CF0D0FFF73CFE82
:10064C00801B854201D3002DE9D12022636C13431A
:10065C006364230041331A70220000234232403479
:10066C00137023700120DFE7F8B504000D001600AD
:10067C00202723689B693B4201D00020F8BD320043
:10068C0029002000FFF788FF002813D1FFF714FE84
:10069C00801B854201D3002DEBD12022636C1343C8
:1006AC006364230041331A70220000234232403429
:1006BC00137023700120E1E770B504000120002CB9
:1006CC003FD0250041352B78DBB2002B05D1220021
:1006DC0040321370200001F007F8242301212B7005
:1006EC002368E0681A68A6688A431A6061681A4A27
:1006FC000A401A619968194A11409960012821D160
:10070C0080210902314399605868154901435960A9
:10071C00D96800200A40DA60616922690A43A1693C
:10072C0009020A43DA60216AE2690A431A6001226B
:10073C0019680A431A60202360642B7020634234CA
:10074C00207070BD84210902314399600228DBD1ED
:10075C00802109015960D7E7FFFFFFF0FF7FFFFF02
:10076C0000800002F0B5050087B003910492059358
:10077C0041352B7804000220202B14D12300403368
:10078C001A78012A0FD001261E70FFF795FD8021E3
:10079C00070000901923320009022000FFF7D4FE55
:1007AC00002802D0012007B0F0BD21232B702500BA
:1007BC00113B42352B70049B606463626B469B8AD1
:1007CC0060636385628D304BFF2A21D9FF2222851D
:1007DC00009380235B0403992000FFF79FFEFF2604
:1007EC00638D3A000C992000002B19D1FFF73CFFC8
:1007FC000028D7D120212368244ED9615A68324071
:10080C005A60230040344133197028702070CAE7B5
:10081C00628D92B2228500938023D2B29B04DAE7D8
:10082C00FFF7F8FE0028BDD1636A226819780133FE
:10083C0091626362638D228D013B9BB26385013AA9
:10084C00638D92B22285002BCAD0002AC8D10097A2
:10085C000C9B80212000FFF777FE0028A2D1638D2E
:10086C00FF2B09D98023FF2226855B040090039976
:10087C002000FFF753FEB3E78023628D9B0492B2F6
:10088C002285D2B20090F2E70020008000E800FE42
:10089C00F0B51D00002389B0079303004133059187
:1008AC00049202931B7804000220202B56D123685B
:1008BC009A6980231B02134050D1210040310A78E1
:1008CC00012A4BD001220A70242102980392017054
:1008DC006364059BE1689B0522689B0D01291FD170
:1008EC0033490B435360FFF7E7FC0600226803997A
:1008FC00936992695B0912090B400A40134312D0A9
:10090C00102723689A6900963A402B00002A27D1B9
:10091C0020212000FFF718FE002817D001201DE031
:10092C00A0218901DDE76B1CE0D0FFF7C5FC801B23
:10093C00854201D3002DD9D12023029A4034137063
:10094C0062681343636000232370E7E72023226867
:10095C00D3612200403441321370207009B0F0BDD5
:10096C00002220212000FFF7EFFD021ED6D12368C4
:10097C000498DF612027DF61079981420ED1802125
:10098C005868C90101435960200000962B003900BA
:10099C00FFF7DAFD0028C1D12368DF61079B049AB9
:1009AC0001330793079B9A4200D992E7C4E7C046EC
:1009BC0000200002F0B50400413422780300D2B2CA
:1009CC000220202A18D11D0040352E78012E13D07C
:1009DC001B68223020701E68233886431E601E68F8
:1009EC00064F3E401E601E6831431960196808436B
:1009FC001860002022702870F0BDC046FFEFFFFF8A
:100A0C00F0B5050041352A780300D2B20220202A25
:100A1C0017D11C0040342678012E12D01B682230CE
:100A2C0028701E68233886431E601E68054F090215
:100A3C003E403143196019680843186000202A7041
:100A4C002070F0BDFFF0FFFFF0B5040085B000286A
:100A5C0002D1012005B0F0BD0368DB0733D4236855
:100A6C009B0700D587E023681B0700D5C8E02368E7
:100A7C005B0700D5EBE02368DB061AD56269BC4D39
:100A8C000423012A00D057E1696B02260B436B63E8
:100A9C006B6B1A436A63FFF70FFC07006B6B3342F7
:100AAC0000D142E1F8216A6BA3698A43DB0013434E
:100ABC006B6323689B0600D566E1626A002A00D04E
:100ACC00A3E10020C6E70C21A94D6A680A40042A5C
:100ADC000BD06B680B40082B0ED1C0226B685202F6
:100AEC00134080225202934206D12B689B03B6D549
:100AFC006368002BB3D1ACE76368012B13D180235F
:100B0C002A685B0213432B60FFF7D6FB8026070095
:100B1C00B6022B683342A2D1FFF7CEFBC01B642870
:100B2C00F7D9032096E7002B15D12B68914A802624
:100B3C0013402B602B68904AB60213402B60FFF7D2
:100B4C00BBFB07002B68334289D0FFF7B5FBC01BFA
:100B5C006428F7D9E5E7052B05D180232A68DB0249
:100B6C0013432B60CBE72B68824A13402B602B6816
:100B7C00814A1340C7E70C227D4D6B6813420BD0A2
:100B8C006B681340082B16D1C0226B6852021340BD
:100B9C008022120293420ED12B689B0703D5E36887
:100BAC00012B00D055E7F8212A6823698A43DB0022
:100BBC0013432B6057E7E2680123002A0FD02A6801
:100BCC00022613432B60FFF777FB07002B68334299
:100BDC00E9D1FFF771FBC01B0228F7D9A1E72A68FE
:100BEC0002269A432A60FFF767FB07002B68334203
:100BFC0000D138E7FFF760FBC01B0228F6D990E75D
:100C0C00E26901235A4D002A10D06A6A0226134366
:100C1C006B62FFF751FB07006B6A334200D026E78B
:100C2C00FFF74AFBC01B0228F6D97AE76A6A02264C
:100C3C009A436A62FFF740FB07006B6A334200D1AC
:100C4C0015E7FFF739FBC01B0228F6D969E78022AC
:100C5C000021474D5205EB690091134208D1EB6915
:100C6C001343EB61EB6913400393039B0123009344
:100C7C008027424E7F0033683B4206D0A368012B8D
:100C8C0013D12A6A13432B6230E033683B43336041
:100C9C00FFF712FB019033683B42EFD1FFF70CFBDF
:100CAC00019BC01A6428F6D93BE70122002B14D112
:100CBC002B6A022793432B622B6A033293432B62DA
:100CCC00FFF7FAFA06002B6A3B4225D0FFF7F4FA3D
:100CDC002B4B801B9842F6D923E7052B0BD1296AA5
:100CEC00013B0B432B622B6A1A432A62FFF7E4FA8F
:100CFC00022706000DE02B6A934304222B622B6A19
:100D0C009343C0E7FFF7D8FA1D4B801B984200D9DC
:100D1C0007E72B6A3B42F5D0009B012B00D0AAE6DB
:100D2C00EB69184A1340EB61A5E6FFF7C5FAC01B47
:100D3C00022800D8B2E6F4E6053203D16A6B9A4376
:100D4C006A63AFE66A6B0226134301226B636B6B1B
:100D5C0093436B63FFF7B0FA07006B6B334200D120
:100D6C00A7E6FFF7A9FAC01B0228F6D9D9E6C046B8
:100D7C0000100240FFFFFEFFFFFFFBFF0070004072
:100D8C0088130000FFFFFFEF0C21534D6A680A40E7
:100D9C008A4209D06B680B40082B0ED1C0226B68BD
:100DAC0052021340934208D16B6BDB0300D484E6F0
:100DBC00236A012B00D04CE67FE6236A002B11D06E
:100DCC0080266B6B760233436B63FFF775FA070073
:100DDC006B6B334200D070E6FFF76EFAC01B022833
:100DEC00F6D99EE66B6B3D4A802613406B63FFF78A
:100DFC0063FA070076026B6B334200D15DE6FFF7B6
:100E0C005BFAC01B0228F6D98BE60C20324B5968D2
:100E1C001D000140082944D01B6831490B402B6050
:100E2C00022A2FD1FFF748FA80260700B6042B6858
:100E3C00334221D10F22EB6A9343226B1343EB62B3
:100E4C00A16AE36A6A680B43264980240A4013436B
:100E5C006B6080232A685B0413432B60FFF72CFA2A
:100E6C000600A4042B68234200D02AE6FFF724FADC
:100E7C00801B0228F6D954E6FFF71EFAC01B022885
:100E8C00D5D94EE6FFF718FA80240600A4042B6887
:100E9C00234200D115E6FFF70FFA801B0228F6D982
:100EAC003FE6012A00D1D4E5C0225868A16A52025B
:100EBC00DB6A02408A4200D0CBE50F221340226B42
:100ECC00934200D0C5E5F0239B031840E36AC01A97
:100EDC00431E9841C0B2BDE500100240FFFFFEFF6B
:100EEC00FFFFFFFEFF7FC2FF70B5194C88B01022C8
:100EFC002100684600F032FE210004AD10221031B2
:100F0C00280000F02BFE0C22124E73681A40082A9F
:100F1C0004D00C2A1AD1104808B070BD0F206A46B4
:100F2C00990C0140545CF26A0240A95CC0228020FA
:100F3C00520213404002834201D1084802E093421E
:100F4C00FBD10548FFF7ECF86043E5E70348E3E71E
:100F5C00A41B000800100240006CDC0200127A0096
:100F6C00F7B505000F00002801D10120FEBD0122BC
:100F7C003B4C236813408B421CD329688B0722D42B
:100F8C00CB072FD4012322681A40974259D32B68E0
:100F9C00344C5B075DD4FFF7A7FF6368324A1B062E
:100FAC001B0FD35CD840314B18600020FFF744F97D
:100FBC000020DBE7236893430B4323602368134033
:100FCC009942D2D1D9E7274A4B0704D5E023506880
:100FDC00DB0003435360F02053688343A86803434A
:100FEC005360CDE76A681F4E012A1AD133689B0300
:100FFC00BBD5032173688B4313437360FFF75CF914
:10100C0001900C2372681A406B689B009A42B9D00D
:10101C00FFF752F9019BC01A154B9842F1D90320E6
:10102C00A4E7022A03D133689B01E2D49DE7032A8B
:10103C0003D1736BDB03DCD497E733689B07D8D4FD
:10104C0093E722689A43226022681A4200D08CE708
:10105C009DE76368074A1340EA68134363609AE7A5
:10106C000020024000100240D71B0008080000209E
:10107C0088130000FFF8FFFF044B054A5B685B0513
:10108C005B0FD35C034A1068D840704700100240D5
:10109C00E71B000808000020F0B5036885B00500C8
:1010AC00DB0328D580220021444C5205E3690091D2
:1010BC00134208D1E3691343E361E36913400393DB
:1010CC00039B0123009380273D4E7F0033683B42F6
:1010DC0041D0C022236A920013403A4E4DD1236A6C
:1010EC001E406B681E43009B2662012B03D1E369F3
:1010FC00354A1340E3612B68DA0706D503202F49E4
:10110C000A6B8243A86802430A639A0706D52B49E7
:10111C002E480A6B0240E86802430A635A0306D55C
:10112C0026492B480A6B0240286902430A639A0637
:10113C0006D5102021490A6B8243686902430A6371
:10114C0000205B0517D540211C4A136B8B43A96902
:10115C000B4313630FE033683B433360FFF7ACF88A
:10116C00019033683B42B4D1FFF7A6F8019BC01A3B
:10117C006428F6D9032005B0F0BD69680A40934293
:10118C00ADD08023226A206A11005B0203432362E4
:10119C00236A10483140034023622162D3079ED555
:1011AC00FFF78AF807000222236A134297D1FFF750
:1011BC0083F8094BC01B9842F5D9DBE700100240BD
:1011CC0000700040FFFCFFFFFFFFFFEFFFFFFCFF85
:1011DC00FFFFF3FFFFFFFEFF8813000070B5040054
:1011EC002569A26803682A436569C1692A4318689E
:1011FC00654D0A43284002431A605A686348256AC1
:10120C000240E06802435A60A26998682A43604D24
:10121C00284002439A605F4A934213D103225E4BEB
:10122C001B6B13405D4AD05C80231B02994200D19A
:10123C009CE0082861D8FEF75FFF6260676077600A
:10124C0060607A00564A934238D1C0228020524BBB
:10125C0092021B6B40021340834200D17FE008D8FE
:10126C00002B00D171E0802301201B02994244D154
:10127C0020E08020800283425ED09342F3D1802311
:10128C001B02994240D163685808464BC0186168EC
:10129C00FEF746FF80B20300434A103B93422CD822
:1012AC000F2302009A43130000072268400F1843D3
:1012BC00D060002000232366636670BD3B4A9342D6
:1012CC000CD1C0228020344B12031B6BC002134084
:1012DC00834244D0C4D980200003CCE7344A9342E3
:1012EC0033D0344A934230D0334A93422DD0334AD0
:1012FC0093422AD0324A934227D00120DAE7FFF7F3
:10130C00BBFE63685B0802E0636858082D4BC0188D
:10131C006168FEF705FF80B20300234A103B93423D
:10132C00EBD82368D860C4E7FFF7DEFDE9E7636814
:10133C00580880231B02EAE780231B029942F6D14E
:10134C006368580880235B02A0E780231B02994244
:10135C00D5D1FFF791FE636840005B0896E78023C8
:10136C001B029942E0D1FFF7BFFDF4E70828C4D86F
:10137C00FEF7CCFEEFFFC3FF89FFC3FFF9FFC3FFEE
:10138C00C3FFC3FFE6FFC046F369FFEFFFCFFFFFCC
:10139C00FFF4FFFF0038014000100240C41B00089E
:1013AC00004400400024F400EFFF0000004800401F
:1013BC00004C004000500040001401400018014057
:1013CC00001C014000127A00436A30B5DA0706D5DA
:1013DC000168284C4A682240846A22434A609A0772
:1013EC0006D50168244C4A682240C46A22434A60EC
:1013FC005A0706D50168214C4A682240046B2243E7
:10140C004A601A0706D501681D4C4A682240446B95
:10141C0022434A60DA0606D501681A4C8A682240D3
:10142C00846B22438A609A0606D50168164C8A683A
:10143C002240C46B22438A605A0610D50168134DB2
:10144C004A68046C2A4022434A6080225203944228
:10145C0005D14A680E4C2240446C22434A601B065C
:10146C0006D502680B4953680B40816C0B435360E3
:10147C0030BDC046FFFFFDFFFFFFFEFFFFFFFBFF80
:10148C00FF7FFFFFFFEFFFFFFFDFFFFFFFFFEFFF20
:10149C00FFFF9FFFFFFFF7FFF7B5802704000E004B
:1014AC00150001933F012268D36933409B1B5942BD
:1014BC004B41AB4201D000201CE0089B0133F3D020
:1014CC00FEF7FAFE019B089AC01A2368824201D3E8
:1014DC00002A10D11A6813490A401A609A68A3317D
:1014EC00FF318A439A6020236367A367002303209C
:1014FC0070342370FEBD04211A680A42D3D0DA6915
:10150C003A42D0D01F621A6806490A401A609A689B
:10151C00A331FF318A439A6020236367A367E36793
:10152C00E4E7C0465FFEFFFF73B500260400C66704
:10153C00FEF7C2FE236805001B681B0715D4236841
:10154C001B685B070AD580210E4B00220093C90350
:10155C002B002000FFF7A0FF002811D12023002032
:10156C006367A367703420700BE08021054B320059
:10157C000093890303002000FFF78EFF0028DED0C4
:10158C00032076BDFFFFFF0110B5041E01D1012021
:10159C0010BD436F002B04D102007032137000F0A9
:1015AC0061FA2423012122686367136820008B43AE
:1015BC001360FFF713FE0128E9D0636A002B02D0F9
:1015CC002000FFF701FF236807495A6820000A40F2
:1015DC002A215A609A688A439A60012219680A4340
:1015EC001A60FFF7A1FFD3E7FFB7FFFF30B58BB051
:1015FC001422002105A800F0BAFA8020204B000329
:10160C0059699025014359615A69ED0502408020C2
:10161C000192019A5969C003014359615A69002426
:10162C00024080200292029A59698002014359615A
:10163C0080215A69C90202400392039A5A69280010
:10164C000A435A615B6900220B4004932021049BDE
:10165C00FEF750FF80239B0105930A4B05A90A480E
:10166C0006930794FEF78AFE202305A9059328000C
:10167C001F3B069307940894FEF780FE0BB030BD19
:10168C0000100240000021100008004810B5134B58
:10169C00134C01222360134B200063600023E26093
:1016AC00A36023616361A361E3612362FFF704F824
:1016BC00002801D000F096F900212000FFF77AF9FC
:1016CC00002801D000F08EF900212000FFF798F9D6
:1016DC00002801D000F086F910BDC046005400402F
:1016EC00300000200E09002010B5040088B0142230
:1016FC00002103A800F03BFA134B22689A4220D138
:10170C008021124CC902626911480A436261636903
:10171C0003220B400193019BC0239B0003931223D4
:10172C0003A90493113B059306920793FEF726FE3B
:10173C008021E26989030A43E261E3690B40029369
:10174C00029B08B010BDC04600540040001002407F
:10175C00000400480C230A78F0B513430B70802367
:10176C00040087B003AD2B70543B13430E004D4F58
:10177C006B70052264237C21FFF78AF83220FEF778
:10178C00A1FD2A00009702237C212000FEF7EAFF2E
:10179C003220FEF797FD2A00009702237C212000BF
:1017AC00FEF7E0FF0520FEF78DFD00972A000223CF
:1017BC007C212000FEF7D6FF042373700C236B7082
:1017CC00FA239B0000932A0002237C212000FEF7C1
:1017DC00C9FF01236B70FA239B002A0000937C2124
:1017EC0002232000FEF7BEFF0220FEF76BFD06234E
:1017FC006B70FA2302279B00B7702A0000937C21A0
:10180C003B002000FEF7AEFF002304AD2B706B7085
:10181C00FA239B0000932A003B00C4212000FEF712
:10182C00A1FF08232B70FA23FF269B006E702A0061
:10183C000093C4213B002000FEF794FF01232B7082
:10184C0020236B70FA239B0000932A003B00C421D9
:10185C002000FEF787FF042305AD2B70FA239B00B5
:10186C006E702A000093C4213B002000FEF77AFF23
:10187C0003232B70FA239B006E702A000093C42163
:10188C003B002000FEF76EFFFA239B002F706E705A
:10189C002A000093C4213B002000FEF763FF07B031
:1018AC00F0BDC046881300007FB54023FA26040023
:1018BC0003AD2B70B6000134631E1B78002B00D1D6
:1018CC007FBD6B702A00009602237C210148FEF735
:1018DC0049FFF0E7300000201FB58023002A00D01C
:1018EC00C0231943802303AA1370FA239B00517061
:1018FC0000937C210223FEF735FF05B000BD0000EC
:10190C001FB5802303AA13707F3B5370FA239B00EF
:10191C0000937C2102230448FEF724FF0220FEF7EB
:10192C00D1FC05B000BDC0463000002070B51026BB
:10193C0098B0342200210BA800F019F932000021D4
:10194C00684600F014F91C22002104A800F00FF9DD
:10195C0080231B021593A023022401259B030BA8B3
:10196C000B94149416930E950F961795FFF76CF82D
:10197C0007230194002429006846009302940394E1
:10198C00FFF7EEFA222304A8049307940994FFF7B7
:10199C0083FB18B070BD000070B5FEF771FCFFF74B
:1019AC00C5FFFFF723FEFFF771FE00F03FF80A4C6E
:1019BC000A492000FA25FFF7CDFEAD00FFF7A0FF86
:1019CC00002220001100FFF787FF0548FFF76CFF8E
:1019DC002800FEF777FCF1E73000002028000020FB
:1019EC00C81B00087047000001200A4B82B099699F
:1019FC000143996180219A69490502400092009A3D
:101A0C00DA690A43DA61DB690B400193019B02B08E
:101A1C007047C046001002407047FEE770477047A1
:101A2C0010B5FEF73DFC10BD704700000B480C4B89
:101A3C0010B50360E1235B0243600C22002342617A
:101A4C008360C36003618361C36103624362FFF718
:101A5C009BFD002801D0FFF7C5FF10BD7C000020C6
:101A6C000044004010B5040088B01422002103A8E3
:101A7C0000F07DF8104B22689A421BD180220F4B4C
:101A8C009202D96990201143D961D969C0051140DE
:101A9C00019101995969114359615B6903A91A4074
:101AAC000292029B0C2303930A3B0493013B079382
:101ABC00FEF764FC08B010BD00440040001002406A
:101ACC000D4885460D480E490E4A002302E0D458B5
:101ADC00C4500433C4188C42F9D30B4A0B4C00236A
:101AEC0001E013600432A242FBD3FFF79DFF00F02C
:101AFC0011F8FFF751FFFEE70080002000000020E6
:101B0C000C000020F81B00080C000020FC0000203A
:101B1C00FEE7000070B500260C4D0D4C641BA410A4
:101B2C00A64209D1002600F02BF80A4D0A4C641B82
:101B3C00A410A64205D170BDB300EB5898470136EE
:101B4C00EEE7B300EB5898470136F2E7F01B0008BC
:101B5C00F01B0008F01B0008F41B0008002310B554
:101B6C009A4200D110BDCC5CC4540133F8E7030099
:101B7C008218934200D1704719700133F9E70000C5
:101B8C00F8B5C046F8BC08BC9E467047F8B5C046D0
:081B9C00F8BC08BC9E4670472E
:101BA40002030405060708090A0B0C0D0E0F10109A
:101BB4000102030405060708090A0B0C0D0E0F1099
:101BC4000004080266616F757A692026206E617AC6
:101BD400696D00000000000000000001020304061B
:0C1BE400070809000000000102030400D3
:041BF000E500000804
:041BF400BD00000828
:0C1BF800010000000400000000127A0050
:0400000508001ACD08
:00000001FF
