:020000040800F2
:10000000008000203D2600086125000863250008C7
:1000100000000000000000000000000000000000E0
:10002000000000000000000000000000652500083E
:100030000000000000000000672500086925000896
:100040008D2600088D2600088D2600088D260008C4
:100050008D2600088D2600088D2600088D260008B4
:100060008D2600088D2600088D2600088D260008A4
:100070008D2600088D2600088D2600088D26000894
:100080008D2600088D2600088D2600088D26000884
:100090008D2600088D2600088D2600088D26000874
:1000A0008D2600088D2600088D2600088D26000864
:0C00B0008D2600088D2600088D26000813
:1000BC0010B5064C2378002B07D1054B002B02D032
:1000CC00044800E000BF0123237010BD7000002025
:1000DC0000000000382F0008044B10B5002B03D093
:1000EC000349044800E000BF10BDC04600000000FA
:1000FC0074000020382F000802B4714649084900EA
:10010C00095C49008E4402BC7047C04603B471467A
:10011C00490840004900095E49008E4403BC704701
:10012C00002243088B4274D303098B425FD3030A2A
:10013C008B4244D3030B8B4228D3030C8B420DD33D
:10014C00FF22090212BA030C8B4202D312120902CB
:10015C0065D0030B8B4219D300E0090AC30B8B4209
:10016C0001D3CB03C01A5241830B8B4201D38B03B7
:10017C00C01A5241430B8B4201D34B03C01A52415C
:10018C00030B8B4201D30B03C01A5241C30A8B429F
:10019C0001D3CB02C01A5241830A8B4201D38B028A
:1001AC00C01A5241430A8B4201D34B02C01A52412E
:1001BC00030A8B4201D30B02C01A5241CDD2C309A0
:1001CC008B4201D3CB01C01A524183098B4201D31C
:1001DC008B01C01A524143098B4201D34B01C01A07
:1001EC00524103098B4201D30B01C01A5241C3087F
:1001FC008B4201D3CB00C01A524183088B4201D3EE
:10020C008B00C01A524143088B4201D34B00C01AD9
:10021C005241411A00D20146524110467047FFE745
:10022C0001B5002000F0F0F802BDC0460029F7D05F
:10023C0076E7704703460B437FD4002243088B427A
:10024C0074D303098B425FD3030A8B4244D3030B51
:10025C008B4228D3030C8B420DD3FF22090212BA16
:10026C00030C8B4202D31212090265D0030B8B4292
:10027C0019D300E0090AC30B8B4201D3CB03C01A7C
:10028C005241830B8B4201D38B03C01A5241430B57
:10029C008B4201D34B03C01A5241030B8B4201D347
:1002AC000B03C01A5241C30A8B4201D3CB02C01AB2
:1002BC005241830A8B4201D38B02C01A5241430A2A
:1002CC008B4201D34B02C01A5241030A8B4201D319
:1002DC000B02C01A5241CDD2C3098B4201D3CB01C0
:1002EC00C01A524183098B4201D38B01C01A52416F
:1002FC0043098B4201D34B01C01A524103098B4273
:10030C0001D30B01C01A5241C3088B4201D3CB005D
:10031C00C01A524183088B4201D38B00C01A524140
:10032C0043088B4201D34B00C01A5241411A00D2F0
:10033C0001465241104670475DE0CA0F00D0494259
:10034C00031000D34042534000229C4603098B42C9
:10035C002DD3030A8B4212D3FC22890112BA030A51
:10036C008B420CD3890192118B4208D389019211D3
:10037C008B4204D389013AD0921100E08909C30958
:10038C008B4201D3CB01C01A524183098B4201D35A
:10039C008B01C01A524143098B4201D34B01C01A45
:1003AC00524103098B4201D30B01C01A5241C308BD
:1003BC008B4201D3CB00C01A524183088B4201D32C
:1003CC008B00C01A5241D9D243088B4201D34B0047
:1003DC00C01A5241411A00D20146634652415B1089
:1003EC00104601D34042002B00D54942704763466A
:1003FC005B1000D3404201B5002000F005F802BDAF
:10040C000029F8D016E770477047C04670B5050054
:10041C00FA200D4B80001978FFF782FE0B4B010080
:10042C001868FFF77DFE00F079F804000120002C1D
:10043C0009D1032D07D802382200290000F03EF81C
:10044C002000034B1D6070BD000000200800002040
:10045C00040000201023064A10B5116800200B433D
:10046C001360FFF7D3FF02F05DF8002010BDC0460B
:10047C0000200240034A044B11681B785B18136080
:10048C007047C046A400002000000020014B1868F3
:10049C007047C046A400002070B50400FFF7F6FFBB
:1004AC000500631C02D0044B1B78E418FFF7EEFF29
:1004BC00401B8442FAD870BD0000002070B5890141
:1004CC00002812DB8308134A03249B009B18FF228D
:1004DC002040A0401400C025844011408140AD0054
:1004EC005E59A6433143595170BD03240F23C0B24A
:1004FC0003402040A040FC34250021408540814031
:10050C00083B054A9B089B009B18DA69AA431143D8
:10051C00D961E9E700E100E000ED00E0094A431E83
:10052C00012093420DD8C021074A08485360036A42
:10053C0009061B021B0A0B43036200200723906071
:10054C0013607047FFFFFF0010E000E000ED00E0DB
:10055C00F0B5564A0B688218541EA24189B0039319
:10056C00002304320592039ADA4001D109B0F0BDA0
:10057C0001229A4094466446039A2240029200D18A
:10058C0092E04A6801921022019E9643022E0DD1F0
:10059C0007240F271C40A400A740DA0892008218F9
:1005AC00156ABD430F69A7403D4315620322140031
:1005BC005D00AC40E4430768013E27400497019F6F
:1005CC003A40AA40049F3A430260012E0ED8CA68F2
:1005DC008668AA402640324382606246466896434B
:1005EC00019AD206D20F9A4032434260C26814403C
:1005FC008A68AA401443019AC460D20054D50126DB
:10060C002B4A1D0094693443946192699C083240D2
:10061C000792079A274AA400A418A26894460322BA
:10062C001540AD000C32AA40674697439022D20584
:10063C009446002260450DD01F4A94463200604516
:10064C0008D01E4E9218B04204D01D4E0132B0425A
:10065C0000D0059AAA403A43A2601A4A029C166836
:10066C00029D019FE4433543FF0301D4350025402F
:10067C0015605668029D019F3543BF0301D43500B8
:10068C00254055609668029D019F3543FF0201D4B9
:10069C00350025409560D568029E019F2E43BF0210
:1006AC0001D425402E00D66001335CE700F0FFB783
:1006BC0000100240000001400004004800080048FF
:1006CC00000C004800040140002A01D081617047F1
:1006DC008162FCE703689A69920701D500229A624D
:1006EC0001229969114202D199690A439A617047B2
:1006FC0070B5049E89053343890D19438023046822
:10070C00DB00700D1840044B6568120418438543D8
:10071C0011432943616070BDFF63FF03F8B504000A
:10072C000E0017001D002268936933409B1B594231
:10073C004B41BB4201D0002017E06B1CF4D0FFF7FB
:10074C00A5FE069BC01A854201D3002DEBD12022B9
:10075C00636C012013436364230041331A7022003D
:10076C0000234232403413702370F8BDF8B503688F
:10077C000400986910230E0017001840202500284B
:10078C0018D1F8BD721C16D0FFF780FEC01B864234
:10079C0001D3002E0ED12022636C1343636423001B
:1007AC0041331A702200002342324034137001206E
:1007BC002370E6E723689A692A42E3D010222000CE
:1007CC00DA61DD61FFF786FF2268064953680B404A
:1007DC0053600423626C13436364230041331D7024
:1007EC00E0E7C04600E800FEF8B504000D00160076
:1007FC00022723689B693B4201D00020F8BD3200E0
:10080C0029002000FFF7B2FF002815D16B1CF0D097
:10081C00FFF73CFE801B854201D3002DE9D120223D
:10082C00636C13436364230041331A70220000236A
:10083C0042324034137023700120DFE7F8B5040016
:10084C000D001600202723689B693B4201D0002035
:10085C00F8BD320029002000FFF788FF002813D1D3
:10086C00FFF714FE801B854201D3002DEBD1202213
:10087C00636C13436364230041331A70220000231A
:10088C0042324034137023700120E1E7F8B50400C4
:10089C000D001700042623689B69334211D13A00DE
:1008AC0029002000FFF762FF00281AD120212368BD
:1008BC009A690A4217D09A69324204D0228D002AD2
:1008CC0001D00020F8BD2021D9615A680E480240A1
:1008DC005A6022000023413263641170403453701B
:1008EC0023700120EEE7FFF7D1FDC01B854201D339
:1008FC00002DD0D12022636C134363642300413359
:10090C001A7040340023EBE700E800FE70B50400D9
:10091C000120002C3FD0250041352B78DBB2002B79
:10092C0005D1220040321370200001F00FFA24236D
:10093C0001212B702368E0681A68A6688A431A6044
:10094C0061681A4A0A401A619968194A11409960FB
:10095C00012821D180210902314399605868154939
:10096C0001435960D96800200A40DA606169226944
:10097C000A43A16909020A43DA60216AE2690A435F
:10098C001A60012219680A431A60202360642B70D4
:10099C0020634234207070BD842109023143996078
:1009AC000228DBD1802109015960D7E7FFFFFFF056
:1009BC00FF7FFFFF00800002F0B5050087B00391B8
:1009CC000492059341352B7804000220202B14D17E
:1009DC00230040331A78012A0FD001261E70FFF72E
:1009EC0055FD8021070000901923320009022000D8
:1009FC00FFF794FE002802D0012007B0F0BD2123A0
:100A0C002B702500113B42352B70049B6064636294
:100A1C006B469B8A60636385628D304BFF2A21D9BC
:100A2C00FF222285009380235B0403992000FFF7AB
:100A3C005FFEFF26638D3A000C992000002B19D124
:100A4C00FFF7FCFE0028D7D120212368244ED96162
:100A5C005A6832405A602300403441331970287070
:100A6C002070CAE7628D92B2228500938023D2B2A5
:100A7C009B04DAE7FFF7B8FE0028BDD1636A226851
:100A8C001978013391626362638D228D013B9BB2B5
:100A9C006385013A638D92B22285002BCAD0002A5D
:100AAC00C8D100970C9B80212000FFF737FE00284F
:100ABC00A2D1638DFF2B09D98023FF2226855B04ED
:100ACC00009003992000FFF713FEB3E78023628D9B
:100ADC009B0492B22285D2B20090F2E700200080F3
:100AEC0000E800FEF0B5050087B003910492059371
:100AFC0041352B7804000220202B14D123004033E5
:100B0C001A78012A0FD001261E70FFF7BFFC802136
:100B1C00070000901923320009022000FFF7FEFDA8
:100B2C00002802D0012007B0F0BD22232B70250035
:100B3C00123B42352B70049B606463626B469B8A4C
:100B4C0060636385628D314BFF2A21D9FF22228598
:100B5C00009380235B0403992000FFF7C9FDFF2657
:100B6C00638D3A000C992000002B19D1FFF766FE1B
:100B7C000028D7D120212368254ED9615A683240EC
:100B8C005A60230040344133197028702070CAE732
:100B9C00628D92B2228500938023D2B29B04DAE755
:100BAC00FFF774FE0028BDD12368626A5B6A13707C
:100BBC00636A228D01336362638D013A013B9BB200
:100BCC006385638D92B22285002BC9D0002AC7D1D0
:100BDC0000970C9B80212000FFF7A0FD0028A1D1DD
:100BEC00638DFF2B09D98023FF2226855B0400909F
:100BFC0003992000FFF77CFDB2E78023628D9B04F4
:100C0C0092B22285D2B20090F2E7C0460024008056
:100C1C0000E800FEF0B51D00002389B00793030027
:100C2C0041330591049202931B7804000220202B7F
:100C3C0056D123689A6980231B02134050D121009E
:100C4C0040310A78012A4BD001220A7024210298E3
:100C5C00039201706364059BE1689B0522689B0D00
:100C6C0001291FD133490B435360FFF70FFC0600DA
:100C7C0022680399936992695B0912090B400A4037
:100C8C00134312D0102723689A6900963A402B0020
:100C9C00002A27D120212000FFF740FD002817D083
:100CAC0001201DE0A0218901DDE76B1CE0D0FFF7DE
:100CBC00EDFB801B854201D3002DD9D12023029A54
:100CCC004034137062681343636000232370E7E7BA
:100CDC0020232268D36122004034413213702070EB
:100CEC0009B0F0BD002220212000FFF717FD021EE5
:100CFC00D6D123680498DF612027DF6107998142F0
:100D0C000ED180215868C90101435960200000961A
:100D1C002B003900FFF702FD0028C1D12368DF61E9
:100D2C00079B049A01330793079B9A4200D992E7D9
:100D3C00C4E7C04600200002F0B50400413422781C
:100D4C000300D2B20220202A18D11D0040352E7883
:100D5C00012E13D01B68223020701E682338864366
:100D6C001E601E68064F3E401E601E6831431960AF
:100D7C00196808431860002022702870F0BDC04626
:100D8C00FFEFFFFFF0B5050041352A780300D2B222
:100D9C000220202A17D11C0040342678012E12D0B4
:100DAC001B68223028701E68233886431E601E681C
:100DBC00054F09023E403143196019680843186019
:100DCC0000202A702070F0BDFFF0FFFFF0B504008A
:100DDC0085B0002802D1012005B0F0BD0368DB0707
:100DEC0033D423689B0700D587E023681B0700D505
:100DFC00C8E023685B0700D5EBE02368DB061AD557
:100E0C006269BC4D0423012A00D057E1696B0226AC
:100E1C000B436B636B6B1A436A63FFF737FB07007B
:100E2C006B6B334200D142E1F8216A6BA3698A43B0
:100E3C00DB0013436B6323689B0600D566E1626A93
:100E4C00002A00D0A3E10020C6E70C21A94D6A6856
:100E5C000A40042A0BD06B680B40082B0ED1C02221
:100E6C006B685202134080225202934206D12B68C7
:100E7C009B03B6D56368002BB3D1ACE76368012B39
:100E8C0013D180232A685B0213432B60FFF7FEFA11
:100E9C0080260700B6022B683342A2D1FFF7F6FA80
:100EAC00C01B6428F7D9032096E7002B15D12B68BB
:100EBC00914A802613402B602B68904AB60213404F
:100ECC002B60FFF7E3FA07002B68334289D0FFF75A
:100EDC00DDFAC01B6428F7D9E5E7052B05D1802383
:100EEC002A68DB0213432B60CBE72B68824A134042
:100EFC002B602B68814A1340C7E70C227D4D6B6831
:100F0C0013420BD06B681340082B16D1C0226B68B0
:100F1C00520213408022120293420ED12B689B077F
:100F2C0003D5E368012B00D055E7F8212A68236923
:100F3C008A43DB0013432B6057E7E2680123002A46
:100F4C000FD02A68022613432B60FFF79FFA070085
:100F5C002B683342E9D1FFF799FAC01B0228F7D965
:100F6C00A1E72A6802269A432A60FFF78FFA070046
:100F7C002B68334200D138E7FFF788FAC01B0228F0
:100F8C00F6D990E7E26901235A4D002A10D06A6A1B
:100F9C00022613436B62FFF779FA07006B6A334240
:100FAC0000D026E7FFF772FAC01B0228F6D97AE7C1
:100FBC006A6A02269A436A62FFF768FA07006B6A4C
:100FCC00334200D115E7FFF761FAC01B0228F6D9AE
:100FDC0069E780220021474D5205EB6900911342CD
:100FEC0008D1EB691343EB61EB6913400393039B4B
:100FFC00012300938027424E7F0033683B4206D08A
:10100C00A368012B13D12A6A13432B6230E0336897
:10101C003B433360FFF73AFA019033683B42EFD120
:10102C00FFF734FA019BC01A6428F6D93BE701227A
:10103C00002B14D12B6A022793432B622B6A0332A9
:10104C0093432B62FFF722FA06002B6A3B4225D012
:10105C00FFF71CFA2B4B801B9842F6D923E7052B84
:10106C000BD1296A013B0B432B622B6A1A432A6270
:10107C00FFF70CFA022706000DE02B6A93430422BB
:10108C002B622B6A9343C0E7FFF700FA1D4B801BC2
:10109C00984200D907E72B6A3B42F5D0009B012B05
:1010AC0000D0AAE6EB69184A1340EB61A5E6FFF7FE
:1010BC00EDF9C01B022800D8B2E6F4E6053203D1E4
:1010CC006A6B9A436A63AFE66A6B0226134301228A
:1010DC006B636B6B93436B63FFF7D8F907006B6B18
:1010EC00334200D1A7E6FFF7D1F9C01B0228F6D98D
:1010FC00D9E6C04600100240FFFFFEFFFFFFFBFFDA
:10110C000070004088130000FFFFFFEF0C21534DCF
:10111C006A680A408A4209D06B680B40082B0ED1D2
:10112C00C0226B6852021340934208D16B6BDB03F5
:10113C0000D484E6236A012B00D04CE67FE6236AB8
:10114C00002B11D080266B6B760233436B63FFF759
:10115C009DF907006B6B334200D070E6FFF796F9F0
:10116C00C01B0228F6D99EE66B6B3D4A80261340C5
:10117C006B63FFF78BF9070076026B6B334200D180
:10118C005DE6FFF783F9C01B0228F6D98BE60C202D
:10119C00324B59681D000140082944D01B68314965
:1011AC000B402B60022A2FD1FFF770F98026070025
:1011BC00B6042B68334221D10F22EB6A9343226B86
:1011CC001343EB62A16AE36A6A680B4326498024E5
:1011DC000A4013436B6080232A685B0413432B6023
:1011EC00FFF754F90600A4042B68234200D02AE62A
:1011FC00FFF74CF9801B0228F6D954E6FFF746F9A5
:10120C00C01B0228D5D94EE6FFF740F98024060012
:10121C00A4042B68234200D115E6FFF737F9801B95
:10122C000228F6D93FE6012A00D1D4E5C02258683D
:10123C00A16A5202DB6A02408A4200D0CBE50F223F
:10124C001340226B934200D0C5E5F0239B0318405A
:10125C00E36AC01A431E9841C0B2BDE500100240BB
:10126C00FFFFFEFFFFFFFFFEFF7FC2FF70B5194CB3
:10127C0088B010222100684601F02EFA210004AD3E
:10128C0010221031280001F027FA0C22124E73683C
:10129C001A40082A04D00C2A1AD1104808B070BD84
:1012AC000F206A46990C0140545CF26A0240A95C1A
:1012BC00C0228020520213404002834201D10848D0
:1012CC0002E09342FBD10548FEF72AFF6043E5E7B5
:1012DC000348E3E7502F000800100240006CDC02CA
:1012EC0000127A00F7B505000F00002801D101208B
:1012FC00FEBD01223B4C236813408B421CD3296852
:10130C008B0722D4CB072FD4012322681A40974293
:10131C0059D32B68344C5B075DD4FFF7A7FF636888
:10132C00324A1B061B0FD35CD840314B186000208F
:10133C00FFF76CF80020DBE7236893430B43236033
:10134C00236813409942D2D1D9E7274A4B0704D5D9
:10135C00E0235068DB0003435360F0205368834361
:10136C00A86803435360CDE76A681F4E012A1AD15F
:10137C0033689B03BBD5032173688B4313437360A2
:10138C00FFF784F801900C2372681A406B689B007D
:10139C009A42B9D0FFF77AF8019BC01A154B9842C4
:1013AC00F1D90320A4E7022A03D133689B01E2D4CC
:1013BC009DE7032A03D1736BDB03DCD497E7336817
:1013CC009B07D8D493E722689A43226022681A427A
:1013DC0000D08CE79DE76368074A1340EA68134323
:1013EC0063609AE700200240001002408A2F000838
:1013FC000800002088130000FFF8FFFF044B054A8B
:10140C005B685B055B0FD35C034A1068D840704780
:10141C00001002409A2F000808000020F0B5036865
:10142C0085B00500DB0328D580220021444C5205F1
:10143C00E3690091134208D1E3691343E361E36963
:10144C0013400393039B0123009380273D4E7F00A1
:10145C0033683B4241D0C022236A920013403A4E7B
:10146C004DD1236A1E406B681E43009B2662012BE4
:10147C0003D1E369354A1340E3612B68DA0706D5DB
:10148C0003202F490A6B8243A86802430A639A0718
:10149C0006D52B492E480A6B0240E86802430A63C2
:1014AC005A0306D526492B480A6B02402869024389
:1014BC000A639A0606D5102021490A6B8243686993
:1014CC0002430A6300205B0517D540211C4A136BAD
:1014DC008B43A9690B4313630FE033683B433360C1
:1014EC00FEF7D4FF019033683B42B4D1FEF7CEFF38
:1014FC00019BC01A6428F6D9032005B0F0BD6968B9
:10150C000A409342ADD08023226A206A11005B020C
:10151C0003432362236A1048314003402362216253
:10152C00D3079ED5FEF7B2FF07000222236A1342AF
:10153C0097D1FEF7ABFF094BC01B9842F5D9DBE7FF
:10154C000010024000700040FFFCFFFFFFFFFFEFA8
:10155C00FFFFFCFFFFFFF3FFFFFFFEFF8813000000
:10156C0070B504002569A26803682A436569C169DE
:10157C002A431868654D0A43284002431A605A688A
:10158C006348256A0240E06802435A60A269986881
:10159C002A43604D284002439A605F4A934213D11C
:1015AC0003225E4B1B6B13405D4AD05C80231B02F5
:1015BC00994200D19CE0082861D8FEF79DFD62603D
:1015CC006760776060607A00564A934238D1C022D7
:1015DC008020524B92021B6B40021340834200D17D
:1015EC007FE008D8002B00D171E0802301201B0282
:1015FC00994244D120E08020800283425ED0934205
:10160C00F3D180231B02994240D163685808464BA2
:10161C00C0186168FEF784FD80B20300434A103B9A
:10162C0093422CD80F2302009A4313000007226820
:10163C00400F1843D060002000232366636670BD02
:10164C003B4A93420CD1C0228020344B12031B6BBB
:10165C00C0021340834244D0C4D980200003CCE79D
:10166C00344A934233D0344A934230D0334A934273
:10167C002DD0334A93422AD0324A934227D00120AC
:10168C00DAE7FFF7BBFE63685B0802E063685808A3
:10169C002D4BC0186168FEF743FD80B20300234A4E
:1016AC00103B9342EBD82368D860C4E7FFF7DEFD0C
:1016BC00E9E76368580880231B02EAE780231B02D2
:1016CC009942F6D16368580880235B02A0E7802317
:1016DC001B029942D5D1FFF791FE636840005B086D
:1016EC0096E780231B029942E0D1FFF7BFFDF4E798
:1016FC000828C4D8FEF70AFDEFFFC3FF89FFC3FF1C
:10170C00F9FFC3FFC3FFC3FFE6FFC046F369FFEF5A
:10171C00FFCFFFFFFFF4FFFF003801400010024035
:10172C00702F0008004400400024F400EFFF00007C
:10173C0000480040004C00400050004000140140A4
:10174C0000180140001C014000127A00436A30B5B9
:10175C00DA0706D50168284C4A682240846A22437D
:10176C004A609A0706D50168244C4A682240C46A2C
:10177C0022434A605A0706D50168214C4A68224028
:10178C00046B22434A601A0706D501681D4C4A684F
:10179C002240446B22434A60DA0606D501681A4C93
:1017AC008A682240846B22438A609A0606D50168B7
:1017BC00164C8A682240C46B22438A605A0610D5A4
:1017CC000168134D4A68046C2A4022434A60802207
:1017DC005203944205D14A680E4C2240446C224379
:1017EC004A601B0606D502680B4953680B40816C96
:1017FC000B43536030BDC046FFFFFDFFFFFFFEFFF4
:10180C00FFFFFBFFFF7FFFFFFFEFFFFFFFDFFFFF90
:10181C00FFFFEFFFFFFF9FFFFFFFF7FFF7B58027ED
:10182C0004000E00150001933F012268D369334078
:10183C009B1B59424B41AB4201D000201CE0089B42
:10184C000133F3D0FEF722FE019B089AC01A2368DD
:10185C00824201D3002A10D11A6813490A401A6037
:10186C009A68A331FF318A439A6020236367A36788
:10187C000023032070342370FEBD04211A680A4231
:10188C00D3D0DA693A42D0D01F621A6806490A40AE
:10189C001A609A68A331FF318A439A6020236367E8
:1018AC00A367E367E4E7C0465FFEFFFFF0B587B0D0
:1018BC000593436F04000D0017000220202B49D123
:1018CC000138002946D0002A44D08023A2685B014D
:1018DC009A4204D12369002B01D101423AD1230051
:1018EC0070331A780220012A34D0012200261A7093
:1018FC002123E6676367FEF7C9FD230050331F8081
:10190C00023303931F808023A26804905B019A42E8
:10191C0004D12369B34201D12E001D0023005233A0
:10192C001A88059B92B20093049B002A0AD140218D
:10193C002000FFF773FF00280BD120237034636065
:10194C00207007E0002280212000FFF767FF0028AD
:10195C0002D0032007B0F0BD2268002D0BD13388D4
:10196C000236DB05DB0D1385039B039A1B88013BB9
:10197C009BB21380D2E72B7801351385F4E7000076
:10198C0073B500260400C667FEF780FD23680500CA
:10199C001B681B0715D423681B685B070AD58021BD
:1019AC000E4B00220093C9032B002000FFF736FFDB
:1019BC00002811D1202300206367A36770342070A6
:1019CC000BE08021054B32000093890303002000BB
:1019DC00FFF724FF0028DED0032076BDFFFFFF01B8
:1019EC0010B5041E01D1012010BD436F002B04D192
:1019FC0002007032137000F0EDFD242301212268E7
:101A0C006367136820008B431360FFF7A9FD01285F
:101A1C00E9D0636A002B02D02000FFF797FE236801
:101A2C0007495A6820000A402A215A609A688A435A
:101A3C009A60012219680A431A60FFF7A1FFD3E7E5
:101A4C00FFB7FFFF70B50F22FA261724050086B0EA
:101A5C006A44B60011706C4400960123C021FEF755
:101A6C00ABFF009601232200C0212800FFF73AF8B3
:101A7C00207806B070BD1FB5FA2303AC9B00217013
:101A8C006270C021009322000223FEF795FF1FBD58
:101A9C00F0B50600FA270F2087B068445400BF0049
:101AAC00017005AD02002100009701233000FEF704
:101ABC0083FF009702232A0021003000FFF712F861
:101ACC006B7828781B02184307B0F0BD70B50D0079
:101ADC0017210400FFF7CFFFA02220002A43182172
:101AEC00FFF7C9FF2E212000FFF7ACFF70BD10B52A
:101AFC00040029221321FFF7BEFF200089221421A4
:101B0C00FFF7B9FF200002221521FFF7B4FF2000D8
:101B1C0000221621FFF7AFFFB12201212000FFF7B1
:101B2C00D5FF032207212000FFF7D0FF200003225E
:101B3C000F21FFF7A0FF012202212000FFF7C6FFB3
:101B4C0000220B212000FFF7C1FF07220A212000F1
:101B5C00FFF7BCFF24220C212000FFF7B7FF002267
:101B6C0011212000FFF7B2FF072210212000FFF700
:101B7C00ADFF202212212000FFF7A8FF00221E211A
:101B8C002000FFF7A3FF07221D212000FFF79EFF77
:101B9C0020221F212000FFF799FF200001220321A2
:101BAC00FFF769FF200001220421FFF764FF2000EA
:101BBC00FF220821FFF75FFF0F2218212000FFF7FB
:101BCC005AFF10BD10B50A002221FFF761FF10BDAE
:101BDC00F0B58BB01422002105A800F086FD802002
:101BEC00284B00035969A426014359615A6990276F
:101BFC00024080200192019A5969C0030143596146
:101C0C005A69F600024080200292029A59698002B9
:101C1C000143596180215A69C90202400392039A17
:101C2C005A69FF050A435A615B69174D0B400493CF
:101C3C00310038000022049BFEF746FD00222800EC
:101C4C003021FEF741FD802300249B0105930F4BAF
:101C5C0005A90F4806930794FEF77AFC0596012612
:101C6C0005A93800069607940894FEF771FC3023FA
:101C7C0005A928000593069607940894FEF768FCBE
:101C8C000BB0F0BD00100240000400480000211011
:101C9C000008004810B5134B134C01222360134B62
:101CAC00200063600023E260A36023616361A36191
:101CBC00E3612362FEF72AFE002801D000F052FAFD
:101CCC0000212000FFF738F8002801D000F04AFA74
:101CDC0000212000FFF756F8002801D000F042FA4E
:101CEC0010BDC04600540040A80000200E09002082
:101CFC0010B5134B134C01222360134B200063606F
:101D0C000023E260A36023616361A361E36123624A
:101D1C00FEF7FCFD002801D000F024FA0021200081
:101D2C00FFF70AF8002801D000F01CFA002120006F
:101D3C00FFF728F8002801D000F014FA10BDC046B7
:101D4C0000580040F40000205D3E302010B5040027
:101D5C008AB01422002105A800F0C7FC2368254A8C
:101D6C00934222D18021244CC902626923480A4340
:101D7C006261636903220B400193019BC0239B00AA
:101D8C000593122305A90693113B07930892099317
:101D9C00FEF7DEFB8021E26989030A43E261E36915
:101DAC000B400293029B0AB010BD154A9342FAD124
:101DBC008021114CC902626910480A43626163694F
:101DCC0003220B400393039BC0231B010593122397
:101DDC0005A90693113B079308920993FEF7B8FBEC
:101DEC008021E269C9030A43E261E3690B40049371
:101DFC00049BD8E700540040001002400004004847
:101E0C00005800400C230A78F0B513430B70802364
:101E1C00040087B003AD2B70543B13430E004D4FA1
:101E2C006B70052264237C21FEF7F4FE3220FEF752
:101E3C0033FB2A00009702237C212000FEF7BCFD17
:101E4C003220FEF729FB2A00009702237C21200078
:101E5C00FEF7B2FD0520FEF71FFB00972A000223B8
:101E6C007C212000FEF7A8FD042373700C236B70FB
:101E7C00FA239B0000932A0002237C212000FEF70A
:101E8C009BFD01236B70FA239B002A0000937C219D
:101E9C0002232000FEF790FD0220FEF7FDFA062338
:101EAC006B70FA2302279B00B7702A0000937C21E9
:101EBC003B002000FEF780FD002304AD2B706B70FF
:101ECC00FA239B0000932A003B00C4212000FEF75C
:101EDC0073FD08232B70FA23FF269B006E702A00DB
:101EEC000093C4213B002000FEF766FD01232B70FC
:101EFC0020236B70FA239B0000932A003B00C42123
:101F0C002000FEF759FD042305AD2B70FA239B002E
:101F1C006E702A000093C4213B002000FEF74CFD9C
:101F2C0003232B70FA239B006E702A000093C421AC
:101F3C003B002000FEF740FDFA239B002F706E70D3
:101F4C002A000093C4213B002000FEF735FD07B0AA
:101F5C00F0BDC046881300007FB54023FA2604006C
:101F6C0003AD2B70B6000134631E1B78002B00D11F
:101F7C007FBD6B702A00009602237C210148FEF77E
:101F8C001BFDF0E7A80000201FB58023002A00D01D
:101F9C00C0231943802303AA1370FA239B005170AA
:101FAC0000937C210223FEF707FD05B000BD000065
:101FBC001FB5802303AA13707F3B5370FA239B0039
:101FCC0000937C2102230448FEF7F6FC0220FEF766
:101FDC0063FA05B000BDC046A800002070B51026FD
:101FEC0098B0342200210BA800F07FFB32000021B6
:101FFC00684600F07AFB1C22002104A800F075FB57
:10200C0080231B021593A023022401259B030BA8FC
:10201C000B94149416930E950F961795FEF7D6FE07
:10202C00072301940024290068460093029403942A
:10203C00FFF758F9222304A8049307940994FFF797
:10204C00EDF918B070BD0000F8B5FEF703FAFFF714
:10205C00C5FFFFF7BDFDFFF71DFEFFF749FE00F0C2
:10206C009DFA344C34492000FFF7CCFE2000FFF7DA
:10207C003EFD3248FFF73BFD2E4C60212000FFF760
:10208C00A1FD2F4D602128602C48FFF79BFD2D4EA4
:10209C002A6830602C492D4800F030FBFA2382B2BC
:1020AC009B002A492A48FFF701FC2A4F32682A492B
:1020BC00380000F023FBFA2382B29B00390024483D
:1020CC00FFF7F4FBFFF774FF002220001100FFF76D
:1020DC005BFF1E48FFF740FF012200212000FFF7A5
:1020EC0053FF3800FFF738FF33682A689B1AC83350
:1020FC000ADA0A2000F00CFA200000220A21FFF76D
:10210C0043FF1648FFF728FF33682A689B1AC82B31
:10211C000BDD0A20404200F0FBF9200001220A21CD
:10212C00FFF732FF0E48FFF717FFFA208000FEF78B
:10213C00B3F9A1E7A80000208C000020F4000020D7
:10214C009000002094000020742F0008400600200E
:10215C0040070020400500207D2F0008862F000836
:10216C00882F000870470000B421F8B50026714B89
:10217C0049005843FEF75EF8072780253400474393
:10218C006D00BE4200DBF8BD0120FEF785F9072C7F
:10219C0000D9CDE02000FDF7AFFF041E3750698257
:1021AC009BB4902001222900C005FEF78DFA8021F6
:1021BC0090200022C900C005FEF786FA00222021DB
:1021CC005D48FEF781FA002210215B48FEF77CFA8D
:1021DC0001240136D5E7902001222900C005FEF725
:1021EC0073FA802190200122C900C005FEF76CFA19
:1021FC00002220215048FEF767FA002210214E4899
:10220C00FEF762FA0224E4E7902000222900C005C0
:10221C00FEF75AFA802190200122C900C005FEF772
:10222C0053FA002220214448FEF74EFA00221021D6
:10223C004148FEF749FA0324CBE7902000222900FD
:10224C00C005FEF741FA802190200122C900C0058B
:10225C00FEF73AFA012220213748FEF735FA002220
:10226C0010213548FEF730FA0424B2E79020002202
:10227C002900C005FEF728FA802190200022C90011
:10228C00C005FEF721FA012220212B48FEF71CFA8B
:10229C00002210212848FEF717FA052499E7902010
:1022AC0000222900C005FEF70FFA802190200022A1
:1022BC00C900C005FEF708FA012220211E48FEF7CE
:1022CC0003FA012210211C48FEF7FEF9062480E7D0
:1022DC00902000222900C005FEF7F6F980219020FD
:1022EC000022C900C005FEF7EFF900222021124898
:1022FC00FEF7EAF9012210210F48FEF7E5F9072451
:10230C0067E7902001222900C005FEF7DDF9802146
:10231C0090200022C900C005FEF7D6F9002220212A
:10232C000548FEF7D1F9012210210348FEF7CCF93C
:10233C0000244EE75102000000040048B421F8B517
:10234C000026714B49005843FDF774FF0727802581
:10235C0034004743ED00BE4200DBF8BD0120FEF720
:10236C009BF8072C00D9CDE02000FDF7C5FE041E1C
:10237C00375069829BB4012210216448FEF7A4F9FE
:10238C00002220216148FEF79FF9902000222900AD
:10239C00C005FEF799F98021902000224900C00564
:1023AC00FEF792F901240136D5E701221021574896
:1023BC00FEF78AF9012220215448FEF785F9902076
:1023CC0000222900C005FEF77FF980219020002211
:1023DC004900C005FEF778F90224E4E70022102139
:1023EC004A48FEF771F9012220214848FEF76CF9A2
:1023FC00902000222900C005FEF766F9802190206C
:10240C0000224900C005FEF75FF90324CBE7002248
:10241C0010213E48FEF758F9012220213B48FEF7D7
:10242C0053F9902001222900C005FEF74DF98021B7
:10243C00902000224900C005FEF746F90424B2E7BB
:10244C00002210213148FEF73FF9002220212F48AD
:10245C00FEF73AF9902001222900C005FEF734F965
:10246C008021902000224900C005FEF72DF905249B
:10247C0099E7002210212548FEF726F90022202199
:10248C002248FEF721F9902001222900C005FEF711
:10249C001BF98021902001224900C005FEF714F998
:1024AC00062480E7002210211848FEF70DF90022BF
:1024BC0020211648FEF708F9902000222900C005BB
:1024CC00FEF702F98021902001224900C005FEF799
:1024DC00FBF8072467E7012210210C48FEF7F4F8FB
:1024EC00002220210948FEF7EFF890200022290055
:1024FC00C005FEF7E9F88021902001224900C005B3
:10250C00FEF7E2F800244EE75102000000040048F8
:10251C0010B5002802DBFFF727FE10BD4042FFF785
:10252C000DFFFAE701200A4B82B0996901439961CA
:10253C0080219A69490502400092009ADA690A439F
:10254C00DA61DB690B400193019B02B07047C04616
:10255C00001002407047FEE77047704710B5FDF75A
:10256C0089FF10BD0A4B10B519680200002901D172
:10257C00084919606946186882188A4206D900F021
:10258C0081F80C2303600120404210BD1A60FCE767
:10259C0098000020C4070020704700000B480C4B2B
:1025AC0010B50360E1235B0243600C2200234261FF
:1025BC008360C36003618361C36103624362FFF79D
:1025CC000FFA002801D0FFF7CDFD10BD4007002009
:1025DC000044004010B5040088B01422002103A868
:1025EC0000F083F8104B22689A421BD180220F4BCB
:1025FC009202D96990201143D961D969C005114063
:10260C00019101995969114359615B6903A91A40F8
:10261C000292029B0C2303930A3B0493013B079306
:10262C00FDF796FF08B010BD0044004000100240BA
:10263C000D4885460D480E490E4A002302E0D45839
:10264C00C4500433C4188C42F9D30B4A0B4C0023EE
:10265C0001E013600432A242FBD3FFF79DFF00F0B0
:10266C0017F8FFF7F1FCFEE70080002000000020C7
:10267C0070000020E02F000870000020C40700202C
:10268C00FEE70000014B18687047C0460C000020A4
:10269C0070B500260C4D0D4C641BA410A64209D13C
:1026AC00002600F043FC0A4D0A4C641BA410A64201
:1026BC0005D170BDB300EB5898470136EEE7B30077
:1026CC00EB5898470136F2E7D82F0008D82F0008AE
:1026DC00D82F0008DC2F0008002310B59A4200D137
:1026EC0010BDCC5CC4540133F8E70300821893424C
:1026FC0000D1704719700133F9E700000EB410B522
:10270C009DB002A9029008610B4882248860486140
:10271C00012040421FABC881084804CBA4000068CC
:10272C0001938C8100F06EF80023029A13701DB097
:10273C0010BC08BC03B01847FFFFFF7F0C00002043
:10274C00F0B58E6885B007000C00039201939E4291
:10275C0039D890238A89DB001A4234D003250969C1
:10276C0023685B1A0293636902985D43EB0F5D1952
:10277C00019B6D1001331B18AB4200D91D00530592
:10278C0032D52900380000F031FB061E09D10C238C
:10279C003B6040230120A28940421343A38105B032
:1027AC00F0BD029A2169FFF797FFA389144A1A40DA
:1027BC0080231343A381029B2661F6182660656172
:1027CC00019EED1AA560019BB34200D21E0032009F
:1027DC000399206800F0ADFAA36800209B1BA3604E
:1027EC0023689E192660DAE72A00380000F05CFBAB
:1027FC00061EE0D12169380000F0AEFAC7E7C046EA
:10280C007FFBFFFFF0B59FB0029005938B890F0003
:10281C0016001B0611D50B69002B0ED1402100F0C0
:10282C00E5FA38603861002805D10C23029A01388A
:10283C0013601FB0F0BD40237B61002306AD6B61BC
:10284C0020336B761033AB7634002378002B47D1D2
:10285C00A31B04930DD0A31B320039000298FFF781
:10286C006FFF431C00D1B5E06A69049B9446634436
:10287C006B612378002B00D1ACE001220023524283
:10288C006A6002A95432521801342B60EB60AB60C1
:10289C001370AB65584E05222178300000F03EFADB
:1028AC00621C002820D12968CB0604D5532302AE24
:1028BC0020309B1918700B0704D553232B2002AE24
:1028CC009B19187023782A2B16D000200A21099BFB
:1028DC002278303A092A55D9002815D0099313E0EB
:1028EC00252BB5D00134B0E70123801B8340296828
:1028FC0014000B432B60CDE7059B181D1B6805903E
:10290C00002B39DB0993140023782E2B0BD1637821
:10291C00621C2A2B3ED1059B02341A1D1B680592A2
:10292C00002B34DB0793354E21780322300000F066
:10293C00F5F9002806D04023801B83402A68013417
:10294C0013432B60217806222D48661C297600F053
:10295C00E5F9002846D02B4B002B2FD12968059B7D
:10296C000722C90528D59B189343083305936B6937
:10297C00039A9B186B6167E75B42EB6002230B4386
:10298C002B60C0E74B4301349B180120A0E70123C7
:10299C005B42C7E7002314000A201A006B60217801
:1029AC003039092903D9002BBDD00792BBE742432C
:1029BC00013452180123F2E70733D5E705AB009336
:1029CC003A00114B2900029800E000BF0390039BD2
:1029DC000133CCD1BB890B985B0600D429E70120CD
:1029EC00404226E705AB00933A00074B29000298BA
:1029FC0000F07AF8EAE7C046A22F0008A82F0008DA
:102A0C00AC2F0008000000004D270008F7B515009A
:102A1C0001938A680B6900900C00934200DA130052
:102A2C0022002B6043321278002A01D001332B6034
:102A3C0023689B0602D52B6802332B60062723687C
:102A4C001F4027D0230043331B785A1E9341226822
:102A5C00920630D42200019943320098089EB04768
:102A6C00431C25D0062320682A68E1680340002512
:102A7C00042B03D18D1AEB43DB171D40A36822698D
:102A8C00934201DD9B1AED180027BD4220D1002096
:102A9C0010E00137E3682A689B1A9F42D2DA2200C1
:102AAC000123193201990098089EB047431CF0D1BC
:102ABC0001204042FEBD3020E11843310870210056
:102ACC005A1C45310978A218433202331170C1E700
:102ADC00220001231A3201990098089EB047431C2A
:102AEC00E6D00137D1E70000F0B58BB006920A00B2
:102AFC0043320793059004920A7E0C00109B6E2AB9
:102B0C0000D18FE017D8632A2CD008D8002A00D126
:102B1C0099E0582A54D026004236327029E0642AB3
:102B2C0001D0692AF7D121681A68080623D5111D2E
:102B3C001960156825E0732A00D188E008D86F2A3F
:102B4C0029D0702AE7D1202209680A43226003E0C9
:102B5C00752A20D0782ADED12200782145321170D6
:102B6C006C4A30E00E001A684236111D1960136869
:102B7C003370012379E04906D9D5111D1960002362
:102B8C00D55E002D03DA2D23049A6D421370624B2F
:102B9C000A2703932FE020681968050603D5081D42
:102BAC0018600D6805E04006F9D50D68081D186021
:102BBC00ADB2594B082703936F2A18D00A2716E099
:102BCC0045310A70544A03921A682168101D186026
:102BDC001568080622D5CB0702D52023194321609E
:102BEC001027002D03D1202322689A432260230052
:102BFC00002243331A706368A360002B5CDB042251
:102C0C00216891432160002D58D1049E002B64D083
:102C1C002600039B42361B7833705EE04806DAD5FB
:102C2C00ADB2D8E709681A68080605D5111D1960F8
:102C3C00136862691A6006E04906F7D5111D196020
:102C4C001368A28A1A800023049E236154E01A6838
:102C5C00111D1960166800216268300000F05EF8E2
:102C6C00002801D0801B6060636823610023049AF4
:102C7C00137041E02369320006990598079DA84717
:102C8C00431C43D0236800259B070FD4099BE068A5
:102C9C0098423DDA18003BE02200012319320699D4
:102CAC000598079EB047431C30D00135E368099A5C
:102CBC009B1A9D42F0DBE9E7002DA9D0049E280069
:102CCC003900FDF7B3FA039B013E5B5C28003370BF
:102CDC003900FDF725FA051EF1D1082F09D123681B
:102CEC00DB0706D563682269934202DC3023013E80
:102CFC003370049B9B1B2361079B09AA0093210043
:102D0C00069B0598FFF782FE431CB3D1012040427D
:102D1C000BB0F0BDC42F0008B32F0008C9B2821845
:102D2C00904201D10020704703788B42FBD00130D8
:102D3C00F6E710B5884202D98B18984208D30023C5
:102D4C009A4207D0CC5CC4540133F9E78B5C8354B2
:102D5C00013AFBD210BD000070B50500002910D05F
:102D6C000C1F2368002B00DAE418280000F0D4F8BC
:102D7C001D4A1368002B05D163601460280000F015
:102D8C00CCF870BDA34209D9216860188342F3D1F5
:102D9C0018685B6841182160EEE713005A68002A36
:102DAC0001D0A242F9D919685818A0420BD1206859
:102DBC000918581819608242E0D1106852684118FD
:102DCC0019605A60DAE7A04202D90C232B60D5E7D0
:102DDC0021686018824203D1106852684118216042
:102DEC0062605C60CAE7C0469C000020032370B59B
:102DFC00CD1C9D43083506000C2D1ED20C25A94276
:102E0C001DD8300000F088F8254A146821000029EC
:102E1C0019D1244C2368002B03D1300000F06AF840
:102E2C0020602900300000F065F8431C2CD10C23E5
:102E3C003000336000F071F803E0002DDFDA0C2372
:102E4C003360002070BD0B685B1B1AD40B2B03D9AD
:102E5C000B60CC18256003E08C420ED163681360C4
:102E6C00300000F05AF8200007220B30231D90434D
:102E7C00C31AE7D05A42E250E4E74B6863600C0097
:102E8C00EEE70C004968C2E70323C41C9C43A04234
:102E9C00E0D0211A300000F02DF8431CDAD1C6E73F
:102EAC009C000020A0000020F8B507000D001600C3
:102EBC00002905D11100FFF799FF04002000F8BD8F
:102ECC00002A03D1FFF748FF3400F7E700F026F89B
:102EDC002C008642F2D931003800FFF787FF041E20
:102EEC00ECD029003200FFF7F7FB29003800FFF780
:102EFC0033FFE3E7002370B5064C050008002360A0
:102F0C00FFF730FB431C03D12368002B00D02B6050
:102F1C0070BDC046C0070020704770470B1F1B6870
:102F2C00181F002B01DA0B58C0187047F8B5C046B3
:102F3C00F8BC08BC9E467047F8B5C046F8BC08BC47
:042F4C009E467047E6
:102F500002030405060708090A0B0C0D0E0F1010DA
:102F60000102030405060708090A0B0C0D0E0F10D9
:102F70000004080264203A20256C64200067203A8F
:102F800020256C6420006400670000000000000041
:102F90000000010203040607080900000000010206
:102FA0000304232D302B2000686C4C0065666745B8
:102FB00046470030313233343536373839414243B1
:102FC0004445460030313233343536373839616262
:082FD000636465660000000067
:042FD800E500000808
:042FDC00BD0000082C
:102FE000010000000400000000127A001000002020
:102FF00000000000000000000000000000000000D1
:1030000000000000000000000000000000000000C0
:1030100000000000000000000000000000000000B0
:1030200000000000000000000000000000000000A0
:103030000000000000000000000000000000000090
:103040000000000000000000000000000000000080
:040000050800263D8C
:00000001FF
